:020000040800F2
:1000000000240020AD030008CD0A0008CF0A000834
:10001000D30A0008D70A0008DB0A00080000000025
:10002000000000000000000000000000DF0A0008DF
:10003000E10A000800000000E30A0008E50A0008E1
:10004000C7030008C7030008C7030008C703000868
:10005000C7030008C70300087F0C0008AD0C0008A8
:10006000C7030008C7030008C7030008C703000848
:10007000C7030008C7030008C7030008C703000838
:10008000C7030008C7030008C7030008C703000828
:10009000C7030008C7030008C7030008C703000818
:1000A000C7030008C7030008C7030008C703000808
:1000B000C7030008C7030008C7030008C7030008F8
:1000C000C7030008C7030008C7030008C7030008E8
:1000D000C7030008C7030008C7030008C7030008D8
:1000E000C7030008C7030008C7030008C7030008C8
:1000F000C7030008C7030008C7030008C7030008B8
:10010000C7030008C7030008C7030008C7030008A7
:10011000C70300080F0C0008C7030008C703000846
:10012000C7030008C7030008C7030008C703000887
:10013000C7030008C7030008C7030008C703000877
:10014000C7030008C7030008C7030008C703000867
:10015000C7030008C7030008C7030008470C0008CE
:10016000C7030008C7030008C7030008C703000847
:10017000C7030008C7030008C7030008C703000837
:10018000C7030008C7030008DFF80CD008F0A0F888
:1001900000480047BD040008002400200CB50020E2
:1001A000019000907648006840F4803074490860FF
:1001B00000BF7348006800F4003000900198401CB4
:1001C0000190009818B90198B0F5A06FF1D16C4872
:1001D000006800F4003010B10120009001E0002020
:1001E00000900098012846D165484030006840F0F2
:1001F00080506349403108606248006840F48040A4
:10020000604908605E48083000685D490831086050
:100210000846006840F4004008600846006840F462
:10022000A05008605848091F0860081F006840F087
:100230008070091F086000BF5148006800F000701E
:100240000028F9D040F20560504908604C48083059
:10025000006820F003004A49083108600846006839
:1002600040F00200086000BF45480830006800F018
:100270000C000828F8D10CBD10B54548006840F4C2
:100280007000434908603E48006840F001003C4966
:10029000086000203A4908310860394800683D4943
:1002A0000840374908603C48091D0860081F00687D
:1002B00020F48020091F0860002031490C310860BB
:1002C000FFF76CFF4FF0006031498039086010BDC6
:1002D00070B500200022022300240221284D083599
:1002E0002D6805F00C0020B1042806D0082834D170
:1002F00007E02A4D2A4E356033E02A4D284E3560FE
:100300002FE01F4D2D1D2D68C5F380541C4D2D1D54
:100310002D6805F03F0154B1224DB5FBF1F5184EA3
:10032000361D3668C6F3881605FB06F209E01B4D3C
:10033000B5FBF1F5124E361D3668C6F3881605FB7F
:1003400006F20F4D2D1D2D68C5F301456D1C6B0088
:10035000B2FBF3F5124E356003E0104D104E3560E0
:1003600000BF00BF064D08352D68C5F303150E4EBE
:10037000705D0B4D2D68C540094E356070BD0000A5
:10038000003802400070004019544007003C024011
:1003900088ED00E0FFFFF6FE103000240024F4009A
:1003A0000000002040787D010400002006488047BE
:1003B00006480047FEE7FEE7FEE7FEE7FEE7FEE74A
:1003C000FEE7FEE7FEE7FEE7790200088901000884
:1003D00030B5FFB0044674B94FF6FF700023FCA29D
:1003E0004FF491710090C82004F0B1FFFCA102A865
:1003F00007F0A0FF0FE0012C0DD14FF6FF70002396
:10040000FBA24FF491710090C82004F0A0FFFBA163
:1004100002A807F08FFF02A807F0D6FC05462A467F
:1004200002A9FAA003F019FA7FB030BD70B5ADF59E
:100430000C7D34217FA807F0AAFC00BF00BF00207C
:10044000019001A9B82002F0F7FD9DF804409DF845
:10045000050000EB042404EB840040000C21B0FBF9
:10046000F1F50A2D07D20121EC4801F04BF90020EB
:10047000FFF7AEFF03E00121E84801F041F92A4609
:10048000E7A17FA807F056FF4FF6FF7000237FAA71
:1004900050210090C82004F05AFF2A46E5A102A886
:1004A00007F048FF02A807F08FFC0646324602A973
:1004B000D6A003F0D2F90DF50C7D70BD8EB03421BD
:1004C00001A807F064FC01F0C5FF02F08FF803F00B
:1004D000F3FA02F013F802F009FE02F0CEFD01F08B
:1004E00025FE4FF4E13001F01FFF03F0A8FC4FF6AA
:1004F000FF7003F08EFC4FF6FF700023D1A20A219B
:100500000090FA2004F023FFD5A3D8A2D9A101A816
:1005100007F010FF4FF6FF70002301AA1E21009084
:10052000084604F014FF02F09BF803F084F84DE154
:10053000D548007801287DD1D448007801281AD107
:1005400001F0F2FF0446012C07D14103D04801F02D
:10055000D7F80120FFF73CFF04E04FF40051CC48EE
:1005600001F0D0F8CB480078012804D10020C94917
:100570000870FFF75BFFC8480068C84909688842EF
:1005800033D0C5480068807810280CD0C248006875
:100590008078822803D1C2480078012803D0BB4864
:1005A0000078012821D1BC4800688178BDA007F0FF
:1005B000B1FEB94800684278B7480068007802EB9D
:1005C0000021B5480068801C01F012FFB2480068A5
:1005D00000F5FA70B049086008460068B549096836
:1005E000884202D1B448AC490860B4480068B449B4
:1005F0000968884271D0B3A007F08CFEAF4800684C
:100600008078202846D1AD4800684079062839D244
:10061000DFE800F003151C232A31ADA007F07AFEB5
:100620004FF6FF700023AFA2322100901E2004F08D
:100630008EFE00E0B7E001209949087029E0AFA0E4
:1006400007F068FE00209049087022E0B6A007F08D
:1006500061FE00208C4908701BE0BFA007F05AFE25
:1006600000208949087014E0C5A007F053FE00205F
:10067000854908700DE0CDA007F04CFE00208249AE
:10068000087006E0D1A007F045FE00207E49087002
:1006900000BF46E0894800688078902826D18748C6
:1006A0000068807910B1012818D100E000BFD0A007
:1006B00007F030FE4FF6FF700023D0A232210090E9
:1006C0001E2004F044FE0120704908700020D1492A
:1006D00008701E20D049087007E031E0CFA007F075
:1006E00019FE00206849087000BF1AE073480068CE
:1006F0008078D02809D1CFA007F00CFE0020C54992
:1007000008701E20C44908700BE06C4800688078AF
:10071000302806D1CBA007F0FDFD6848006803F043
:100720003AF96648006800F5967064490860084622
:100730000068C9490968884202D1C8485F49086011
:10074000C7480068C749096888423FD0C448016863
:10075000891CC5A007F0DEFDC6A1C1480068801C49
:1007600007F020FB20B102212C4800F0CBFF0AE06B
:10077000C4A1BB480068801C07F014FB18B102211B
:10078000264800F0BDFFB648006800F59670B449F1
:10079000086008460068BF490968884216D1BE480B
:1007A000AF49086012E0BDA007F0B4FD02F078F890
:1007B00060B9BFA007F0AEFD0120334908700020EA
:1007C000C0490860C049087002F008FFB0E60000A8
:1007D000B5C6B9E2E3D0D6B5B1A8BEAF00000000FF
:1007E0007B227761726E4964223A20307D000000DE
:1007F000CAD6B6AFB1A8BEAF000000007B227761B9
:10080000726E4964223A20317D0000007075626C7E
:100810006973685F746F70696300000000140240C0
:10082000B9E2D5D5C7BFB6C83A25336475672F6D11
:10083000330000007B226C69676874223A202564CB
:100840007D000000D6C7C4DCBEC8D4AEB2D6B9DCC9
:10085000C0EDCFB5CDB32DBEC8D4AEB2D6310000F9
:100860006C696C69616E6731323300006E6F76615E
:1008700036363600535349443A25732020205041E0
:1008800053533A257300000091000020930000208C
:100890000008024014000020600000205C000020DE
:1008A00092000020B7A2CBCDCAFDBEDD3A3078253C
:1008B000780D0A0064000020D408002054000020B5
:1008C00050000020BDD3CAD5B5BDCAFDBEDD3A007B
:1008D000434F4E4E454354B1A8CEC4B3C9B9A60D3B
:1008E0000A000000434F4E4E454354B3C9B9A620F9
:1008F000202020202020202020000000C1ACBDD3DB
:10090000D2D1BEDCBEF8A3ACB2BBD6A7B3D6B5C4B9
:10091000D0ADD2E9B0E6B1BEA3ACD7BCB1B8D6D8A1
:10092000C6F40D0A00000000C1ACBDD3D2D1BEDCBC
:10093000BEF8A3ACB2BBBACFB8F1B5C4BFCDBBA7AC
:10094000B6CBB1EACAB6B7FBA3ACD7BCB1B8D6D860
:10095000C6F40D0A00000000C1ACBDD3D2D1BEDC8C
:10096000BEF8A3ACB7FECEF1B6CBB2BBBFC9D3C302
:10097000A3ACD7BCB1B8D6D8C6F40D0A00000000AD
:10098000C1ACBDD3D2D1BEDCBEF8A3ACCEDED0A705
:10099000B5C4D3C3BBA7C3FBBBF2C3DCC2EBA3ACE0
:1009A000D7BCB1B8D6D8C6F40D0A0000C1ACBDD3CF
:1009B000D2D1BEDCBEF8A3ACCEB4CADAC8A8A3AC10
:1009C000D7BCB1B8D6D8C6F40D0A0000C1ACBDD3AF
:1009D000D2D1BEDCBEF8A3ACCEB4D6AAD7B4CCACD0
:1009E000A3ACD7BCB1B8D6D8C6F40D0A000000003D
:1009F000B6A9D4C4B3C9B9A60D0A0000B6A9D4C417
:100A0000B3C9B9A62020202020202020202020208B
:100A1000202000009000002015000020B6A9D4C4BA
:100A2000CAA7B0DCA3ACD7BCB1B8D6D8C6F40D0AFF
:100A30000000000050494E47B1A8CEC4BBD8B8B49E
:100A40000D0A0000B7FECEF1C6F7B5C8BCB630CD72
:100A5000C6CBCD0D0A00000058000020F80200208F
:100A60006C00002068000020C3FCC1EE3A25730D25
:100A70000A000000226C656432737769746368222F
:100A80003A203100226C656432737769746368229E
:100A90003A2030007000002098120020D0E8D2AA3E
:100AA000C1ACBDD3B7FECEF1C6F70D0A0000000001
:100AB000BDA8C1A2544350C1ACBDD3B3C9B9A60DA2
:100AC0000A000000380000203D000020704700BFF1
:100AD000FEE700BFFEE700BFFEE700BFFEE770478E
:100AE0007047704710B57D480078012845D17C4893
:100AF0000068401C7A490860084600684FF47A7123
:100B0000B0FBF1F201FB120058BB764800780028D8
:100B100027DD74480078401E724908700846007846
:100B2000F8B97148007830B1012807D0032808D0FF
:100B300004280DD108E002F085FE09E002F082FEF3
:100B400006E002F07FFE03E000206449087000BF69
:100B500000BF02206349087063480078401C624966
:100B600008705F48006841F28831884205D3002050
:100B70005B49086001205D4908705D4800780028E5
:100B800033DD5B480078401E5949087008460078FC
:100B900058BB5248007818B901205649087024E023
:100BA00055485649026856480068801C07F0D6F838
:100BB00051480088000A5249096808704E48007878
:100BC0004F49096848704E48006800F596704C49D6
:100BD0000860084600684B490968884202D14A48C3
:100BE00047490860002044490860484800780028C8
:100BF0000ADD46480078401E4449087008460078DF
:100C000010B901204249087001F067FC10BD10B511
:100C100040F225513F4801F042FA98B140F2255187
:100C20003C4801F073FA3B4801F077F9C1B2324811
:100C300002680068401C304B186030488154052021
:100C40002B49087010BD10B540F22551324801F013
:100C500026FA98B140F225512F4801F057FA2E4854
:100C600001F05BF92D492E4A126888542C4800681F
:100C7000401C2B49086005202449087010BD10B5A0
:100C8000012000F035F980B10121264800F02BFD4C
:100C900008B9012000E00020044622460121214835
:100CA00000F032FD012000F034F910BD10B5022033
:100CB00000F01EF980B102211A4800F014FD08B9B5
:100CC000012000E00020044622460221154800F0E1
:100CD0001BFD022000F01DF910BD00009100002056
:100CE00024000020150000209000002014000020A7
:100CF0003C0000203D00002038000020CC010020F6
:100D00005000002058000020F8020020440000207D
:100D1000450000200050004000140140A0000020C9
:100D2000400000200014024032490143324A116061
:100D3000704770B5002100230F22C4781CB32E4CDD
:100D4000246804F4E064C4F5E064C4F30721C1F14D
:100D50000404E3B20A4144789C40E1B28478144030
:100D600021430C07210E254C05786155047804F0C9
:100D70001F050124AC4005786D11AD0005F1E0259B
:100D8000C5F8004109E0047804F01F050124AC40D7
:100D90001B4D0678761145F8264070BD194A0A4069
:100DA0000243154B1B1F1A60704739B1124A121DBE
:100DB00012680243104B1B1D1A6006E00E4A121DFA
:100DC000126882430C4B1B1D1A607047042808D11F
:100DD0004FF0E021096941F004014FF0E022116178
:100DE00007E04FF0E021096921F004014FF0E02213
:100DF000116170470000FA050CED00E000E400E02E
:100E000080E100E080FFFF1F002044490860091DC9
:100E10000860091D0860091D086041483F491431F8
:100E20000860704700213D498279002A3AD00A467D
:100E3000126803689A430B461A600A1D1268036819
:100E40009A430B1D1A60027911440A6803681A4319
:100E50000A60324A0832126803689A432F4B0833FB
:100E60001A601A1D126803689A432C4B0C331A60DF
:100E70004279102A0ED11A1F126803681A43274BB1
:100E800008331A601A1D126803681A43234B0C3387
:100E90001A600DE02149427911440A6803681A4337
:100EA0000A6005E0027911440A6803689A430A60FF
:100EB00070470021016001710C2141710021817195
:100EC00070471649103109680143144A1032116005
:100ED000704701460020114A143212680A400AB1D4
:100EE000012000E0002070470C4914310860704771
:100EF000014600200022094B1B6803EA0102074B50
:100F000014331B680B4013B10AB1012000E000202C
:100F1000704702491431086070470000003C0140EE
:100F2000FFFF7F0030B943F2DB028100A1F1C04135
:100F30000A6005E043F2D2028100A1F1C0410A60DB
:100F40006FF07042411C8900A1F1C0410A6081002C
:100F5000A1F1C041C1F804217047D0E90112114349
:100F6000C268114302691143426911438269114306
:100F7000C2691143026A1143426A1143826A1143F2
:100F8000C26A1143026B114302689200A2F1C0428F
:100F90001160816808290BD101688900A1F1C04165
:100FA000096841F0400201688900A1F1C0410A606E
:100FB000416B0968426B526841EA0211426B9268C8
:100FC00041EA0221426B928941EA0241426B128A54
:100FD00041EA0251426B127D41EA0261426B926921
:100FE00011430268521C9200A2F1C0421160C16A12
:100FF000B1F5804F1BD1816B0968826B526841EA61
:101000000211826B926841EA0221826B128A41EAE4
:101010000251826B127D41EA0261826B9269114337
:1010200002689200A2F1C042C2F8041107E06FF01A
:10103000704201688900A1F1C041C1F804217047E4
:10104000002101600221416000218160C1600161D5
:1010500041618161C16101624FF480514162490087
:1010600081620021C16201630F21426B1160426BFA
:101070005160FF21426B91600F21426BD160426B46
:101080001161426B51610021426B91610F21826BB2
:101090001160826B5160FF21826B91600F21826B26
:1010A000D160826B1161826B51610021826B916111
:1010B000704751B18200A2F1C042126842F00103B0
:1010C0008200A2F1C042136009E08200A2F1C04296
:1010D0001268F94B1A408300A3F1C0431A607047AD
:1010E00010280AD118214FF0204211664021516684
:1010F0004FF0FC319166D16610E01821EF4A116083
:1011000040214FF02042C2F884104FF0FC31EB4AEE
:10111000083211604FF02042C2F88C10704730B591
:10112000002100220023446844F0080485682C4311
:10113000C5682C4305692C43456944EA4524856903
:1011400044EA4531C4692468C5696D6844EA0524E8
:10115000C5692D8944EA0544C5692D7B44EA0562C9
:10116000046A2468056A6D6844EA0524056A2D89C5
:1011700044EA0544056A2D7B44EA05630468102CA3
:1011800005D14FF020442166A266E36608E0CB4C0F
:1011900021604FF02044C4F88820C84C0C342360F0
:1011A00030BD10210160002141608160C16001619A
:1011B00041618161FC21C2691160C2695160C269EB
:1011C0009160C269D160026A1160026A5160026A6C
:1011D0009160026AD160704799B1102808D14FF030
:1011E0002042126E42F004024FF020431A661DE0C6
:1011F000B24A126842F004024FF02043C3F8802044
:1012000014E0102809D14FF02042126EAA4BDB1EC9
:101210001A404FF020431A6608E0A84A1268A64B0D
:10122000DB1E1A404FF02043C3F88020704799B16D
:10123000102808D14FF02042126E42F040024FF0C9
:1012400020431A661DE09D4A126842F040024FF0AA
:101250002043C3F8802014E0102809D14FF0204229
:10126000126E954B3F3B1A404FF020431A6608E040
:10127000924A1268904B3F3B1A404FF02043C3F80C
:101280008020704701460020102903D14FF02042F2
:10129000506F02E0894A143210687047182087495D
:1012A0002031086000200906C1F8A4004FF0FC308E
:1012B000824928310860091D0860091D08607047CF
:1012C000016841F01001426841EA4221826841EA26
:1012D00042317A4A20321160C1680968C268526896
:1012E00041EA0221C268128941EA0241C268127BC6
:1012F00041EA0261714A2832116001690968026994
:10130000526841EA02210269128941EA02410269F6
:10131000127B41EA0261694A2C3211604169096815
:101320004269526841EA02214269128941EA024156
:101330004269127B41EA02614FF02042C2F8B010CC
:1013400070470021016041608160FC21C26811602A
:10135000C2685160C2689160C268D1600269116060
:1013600002695160026991600269D160426911604D
:1013700042695160426991604269D160704748B1E9
:101380004E492031096841F004014FF02042C2F873
:10139000A01009E0494920310968474AD21E11408E
:1013A0004FF02042C2F8A010704710B5F2B11028DB
:1013B00007D14FF020435B6E0B434FF02044636630
:1013C00032E0B0F5807F08D13C4B1B1D1B680B43FE
:1013D0004FF02044C4F8843026E0384B24331B6897
:1013E0000B434FF02044C4F8A4301DE0102807D16F
:1013F0004FF020435B6E8B434FF02044636613E055
:10140000B0F5807F08D12D4B1B1D1B688B434FF01F
:101410002044C4F8843007E0284B24331B688B43F6
:101420004FF02044C4F8A43010BD10B5024600208F
:101430000023102A03D14FF02044636E09E0B2F577
:10144000807F03D11D4C241D236802E01B4C2434F3
:10145000236803EA01040CB1012000E0002010BD64
:10146000102807D14FF02042526E8A434FF020439C
:101470005A6613E0B0F5807F08D1104A121D126839
:101480008A434FF02043C3F8842007E00B4A2432FC
:1014900012688A434FF02043C3F8A420704770B508
:1014A00002460020002300240025102A08D14FF016
:1014B0002046736E0DE00000FEFF0F00800000A0CC
:1014C000B2F5807F02D1184E336802E0164E203606
:1014D000336803EA010403EAD10514B10DB1012018
:1014E00000E0002070BD102808D14FF02042526E5D
:1014F00022EAD1024FF020435A6614E0B0F5807F13
:1015000008D1094A126822EAD1024FF02043C3F8F9
:10151000842008E0044A2032126822EAD1024FF007
:101520002043C3F8A4207047840000A010B50446EF
:101530008C48844208D10121084600F000FB0021BC
:10154000012000F0FCFA5EE08748844208D10121C6
:10155000022000F0F4FA0021022000F0F0FA52E03C
:101560008248844208D10121042000F0E8FA0021D9
:10157000042000F0E4FA46E07D48844208D10121CD
:10158000082000F0DCFA0021082000F0D8FA3AE048
:101590007848844208D10121102000F0D0FA0021BF
:1015A000102000F0CCFA2EE07348844208D10121CB
:1015B000202000F0C4FA0021202000F0C0FA22E030
:1015C0006E48844208D10121402000F0B8FA002181
:1015D000402000F0B4FA16E06948844208D10121A5
:1015E000802000F0ACFA0021802000F0A8FA0AE088
:1015F0006448844207D10121801500F0A0FA00213F
:10160000A01500F09CFA10BDF0B50A460021002399
:10161000002400BF3DE0012505FA01F3156805EA45
:1016200003049C4234D105684F000326BE40B543F5
:10163000056015794E00B54006683543056015799B
:10164000012D02D01579022D16D185684F00032691
:10165000BE40B543856055794E00B5408668354338
:101660008560456801268E40B5434560456896799A
:101670008E40B6B235434560C5684F000326BE4074
:10168000B543C560D5794E00B540C6683543C560E1
:10169000491C1029BFD3F0BD4FF6FF710160002136
:1016A000017141718171C171704708B54FF4803289
:1016B0000092009A0A430092009AC261C161009AA6
:1016C000C261C2690092C269009208BD0246002050
:1016D00013690B400BB1012000E000207047014668
:1016E000086980B270470246002053690B400BB175
:1016F000012000E0002070470146486980B2704731
:1017000001837047418370470AB1018300E0418340
:1017100070474161704742694A4042617047F0B585
:10172000002300244D07ED0E02FA05F3CE1000F160
:10173000200555F826504E07F70E0F26BE40B5433C
:10174000CF1000F1200646F82750CE1000F12005FA
:1017500055F8265045EA0304CE1000F1200545F85F
:101760002640F0BD00000240000402400008024094
:10177000000C024000100240001402400018024019
:10178000001C024000200240FA48006840F00100BE
:10179000F84908600020F74908310860F5480068FA
:1017A000F5490840F3490860F448091D0860081F1E
:1017B000006820F48020091F08600020ED490C31EA
:1017C000086070470021EB4A921C117011460870A6
:1017D000704710B501460022002300204A11012A5B
:1017E00002D1E44C236808E0022A03D1E14C7034B2
:1017F000236802E0DF4C7434236801F01F020124E7
:1018000094401C400CB1012000E0002010BD38B510
:10181000002000900024002500BF3120FFF7D9FFF1
:1018200005460098401C00900098B0F5A06F01D0CC
:10183000002DF2D03120FFF7CCFF08B1012400E0E9
:101840000024204638BD01460020CA4A106820F016
:10185000F80040EAC10010607047C949086070474D
:101860000021C44A703211701170012802D004287E
:101870000AD104E00121BF4A7032117005E0052150
:10188000BC4A7032117000E000BF00BF7047BD4914
:101890000860704770B5049C41EA82150126C6EBCA
:1018A000530645EA0645054345EA0465B14E361D33
:1018B000356070BDB24908667047820142EA017224
:1018C000AC4B84331A607047AD4988667047AC49A9
:1018D000C864704702460020A64B0833186820F001
:1018E000EC6042EA01031843A24B083318607047CA
:1018F000024600209F4B0833186820F0784042EAE7
:10190000010318439B4B08331860704701460020C1
:10191000984A0832106820F00300084310607047AE
:1019200094480830006800F00C0070470146002021
:10193000904A0832106820F0F000084310607047A9
:10194000014600208B4A0832106820F4E05008431A
:101950001060704701460020864A0832106820F463
:10196000604040EAC10010607047F0B500210022DD
:1019700000240225002602237E4F08373F6807F027
:101980000C0121B1042905D0082937D105E07E4F8B
:10199000076036E07D4F076033E0764F3F1D3F68BC
:1019A000C7F38056734F3F1D3F6807F03F036EB18A
:1019B000764FB7FBF3F7DFF8BCC10CF1040CDCF891
:1019C00000C0CCF3881C07FB0CF40CE06E4FB7FB97
:1019D000F3F7DFF8A0C10CF1040CDCF800C0CCF385
:1019E000881C07FB0CF4634F3F1D3F68C7F301479A
:1019F0007F1C7D00B4FBF5F7076002E0624F0760D3
:101A000000BF00BF5B4F08373F6807F0F0010909CE
:101A10005F4F7A5C0768D7404760564F08373F688A
:101A200007F4E051890A5A4F7A5C4768D7408760CB
:101A3000504F08373F6807F46041490B544F7A5CB8
:101A40004768D740C760F0BD002100F44072B2F58E
:101A5000407F0AD1474A0832116821F4F8114D4AF3
:101A600002401143434A08321160424A7032126800
:101A7000C0F30B031A433F4B70331A607047414960
:101A80004439086070473F4940390860704742490F
:101A90000860704739B1374A303212680243354B1B
:101AA00030331A6006E0334A303212688243314BD9
:101AB00030331A60704739B12E4A3432126802430B
:101AC0002C4B34331A6006E02A4A343212688243BF
:101AD000284B34331A60704739B1264A38321268BD
:101AE0000243244B38331A6006E0224A3832126827
:101AF0008243204B38331A60704739B11D4A403257
:101B0000126802431B4B40331A6006E0194A403208
:101B100012688243174B40331A60704739B1154A37
:101B2000443212680243134B44331A6006E0114AF0
:101B30004432126882430F4B44331A60704739B104
:101B40000C4A1032126802430A4B10331A6006E046
:101B5000084A103212688243064B10331A607047ED
:101B6000E1B1044A143212680243024B14331A6082
:101B700019E0000000380240FFFFF6FE103000249C
:101B800000004742800E47420024F40040787D0167
:101B900028000020FFFCFF0F5C0147425B4A1268EF
:101BA00082435A4B1A60704739B1584A121D126865
:101BB0000243564B1B1D1A6006E0544A121D126860
:101BC0008243524B1B1D1A60704739B14F4A0C3289
:101BD000126802434D4B0C331A6006E04B4A0C323C
:101BE00012688243494B0C331A60704739B1474A37
:101BF000103212680243454B10331A6006E0434A24
:101C0000103212688243414B10331A60704739B169
:101C10003E4A3C32126802433C4B3C331A6006E0B9
:101C20003A4A3C3212688243384B3C331A60704760
:101C300039B1364A403212680243344B40331A609D
:101C400006E0324A403212688243304B40331A6019
:101C5000704739B12D4A4432126802432B4B44334A
:101C60001A6006E0294A443212688243274B443303
:101C70001A60704739B1254A4C3212680243234B2F
:101C80004C331A6006E0214A4C32126882431F4BE3
:101C90004C331A60704739B11C4A50321268024303
:101CA0001A4B50331A6006E0184A503212688243C9
:101CB000164B50331A60704739B1144AD21F12784C
:101CC0000243124BDB1F1A7006E0104AD21F127833
:101CD00082430E4BDB1F1A7070470C48603000685F
:101CE00040F080700949603108607047014600206B
:101CF000064A083A12680A400AB1012000E00020B2
:101D000070470249891F087070470000143802406C
:101D100010B50446F748844208D101211020FFF78E
:101D200065FF00211020FFF761FF3EE0F24884428A
:101D300009D101214804FFF748FF00214FF400308A
:101D4000FFF743FF31E0ED48844209D101218804C7
:101D5000FFF73BFF00214FF48020FFF736FF24E020
:101D6000E748844209D10121C804FFF72EFF002172
:101D70004FF40020FFF729FF17E0E248844209D121
:101D800001210805FFF721FF00214FF48010FFF724
:101D90001CFF0AE0DC48844207D101212020FFF724
:101DA00025FF00212020FFF721FF10BD2DE9FF476F
:101DB00005460E460024A14600BFA046B08900B1EA
:101DC00000BF2C8A24F44054F08804432C82AC8950
:101DD00041F20C608443B08831890843718908431B
:101DE0000443AC81AC8A24F44074B0890443AC82CF
:101DF0006846FFF7BAFDBF48854202D0C248854217
:101E000002D1DDF80C9001E0DDF80890A88900F41B
:101E1000004040B109EBC90000EB091031684900EE
:101E2000B0FBF1F707E009EBC90000EB09103168DE
:101E30008900B0FBF1F76420B7FBF0F00401200942
:101E4000642101FB1078A88900F4004040B13220E1
:101E500000EBC800B0FBF1F000F00700044308E01D
:101E6000322000EB08106421B0FBF1F000F00F000D
:101E700004432C81BDE8FF874FF416510160002117
:101E80008180C18001810C214181002181817047C5
:101E900010B502460020108A20F470600B884C8830
:101EA00023438C882343CC8823431843108210BDDE
:101EB0000021018041808180C180704721B18289E9
:101EC00042F40052828104E082894DF6FF731A4089
:101ED00082817047028B02F47F420283028B0A43A5
:101EE0000283704721B1828942F40042828103E07B
:101EF0008289C2F30E028281704721B1828A42F444
:101F00000062828204E0828A4FF2FF731A4082826A
:101F10007047C1F308028280704701468888C0F389
:101F200008007047028A4FF6F0731A400282028A54
:101F30000A430282704721B1828942F00202828103
:101F400004E082894FF6FD731A40828170478289CE
:101F50004FF2FF731A40828182890A43828170475F
:101F6000028A4FF6DF731A400282028A0A43028213
:101F7000704721B1028A42F48042028204E0028A60
:101F80004BF6FF731A4002827047818941F00101CC
:101F90008181704721B1828A42F00802828204E086
:101FA000828A4FF6F7731A4082827047028BD2B250
:101FB0000283028B42EA01220283704721B1828AA6
:101FC00042F02002828204E0828A4FF6DF731A40D8
:101FD0008282704721B1828A42F01002828204E03C
:101FE000828A4FF6EF731A4082827047828A4FF6D8
:101FF000FB731A408282828A0A438282704721B12F
:10200000828A42F00202828204E0828A4FF6FD73E5
:102010001A40828270471AB1838A0B43838202E09E
:10202000838A8B4383827047F0B5034600240026E1
:102030000025002040F66A17B94200D100BF1846BB
:10204000C1F3421401F01F06012707FA06F5012C1F
:1020500001D10C3004E0022C01D1103000E014302A
:102060001AB107682F43076002E00768AF430760B3
:10207000F0BD02460020B1F5007F00D100BF1388FB
:102080000B400BB1012000E00020704701F400720A
:10209000B2F5007F00D100BFCA430280704770B51F
:1020A0000246002400230025002040F66A16B142B3
:1020B00000D100BFC1F3421501F01F03012606FA4B
:1020C00003F3012D02D19689334006E0022D02D19F
:1020D000168A334001E0968A33400C12012606FA34
:1020E00004F41688344013B10CB1012000E0002044
:1020F00070BD000000100140004400400048004056
:10210000004C0040005000400014014010B5002277
:10211000002340F66A14A14200D100BF0A12012434
:102120009440A3B2DC43048010BD000000B587B02A
:1021300001210420FFF7AEFC01218804FFF7DDFC3C
:1021400002208DF8180000208DF81A0001208DF86B
:102150001B0000208DF819004FF40060059005A9C0
:10216000AE48FFF751FA4FF48060059005A9AB48DF
:10217000FFF74AFA07220A21A848FFF7D0FA0722F8
:102180000B21A648FFF7CBFA4FF4E1300190002075
:10219000ADF80800ADF80A00ADF80C00ADF810007D
:1021A0000C20ADF80E0001A99D48FFF7FFFD0121AD
:1021B0009B48FFF783FE012240F225519848FFF724
:1021C00033FF07B000BD70B504460D469448008843
:1021D000E1B29348FFF79DFE00BF40219048FFF712
:1021E00048FF0028F9D0204670BD2DE9F041054692
:1021F0000E46002406E02F5D39468AA006F08AF8D4
:10220000601CC4B2B442F6DB88A006F083F8BDE8D7
:10221000F08170B504460D460BE014F8011B8048B0
:10222000FFF777FE00BF40217D48FFF722FF00281F
:10223000F9D02800A5F10105EFD170BD10B588B027
:10224000044600207A4908707A4908607A49087083
:1022500001210420FFF71EFC01212020FFF75EFC76
:1022600002208DF81C0000208DF81E0001208DF842
:102270001F0000208DF81D00C020069006A96748A9
:10228000FFF7C2F9082206216448FFF748FA08223E
:1022900007216248FFF743FA02940020ADF80C00D2
:1022A000ADF80E00ADF81000ADF814000C20ADF83C
:1022B000120002A96148FFF779FD01215F48FFF78D
:1022C000FDFD012240F225515C48FFF7ADFE4FF4C1
:1022D000A060FEF729FD47208DF8040000208DF84E
:1022E000050001208DF806008DF8070001A8FEF713
:1022F00020FD01215148FFF7E1FD08B010BD70B588
:1023000004460D460BE014F8011B4C48FFF701FE94
:1023100000BF40214948FFF7ACFE0028F9D0280053
:10232000A5F10105EFD170BD10B588B004460020BD
:1023300043490870434908604349087001210C2053
:10234000FFF7A8FB01210805FFF7D7FB02208DF856
:102350001C0000208DF81E0001208DF81F000020B9
:102360008DF81D000420069006A93848FFF74CF9A7
:102370004FF48050069006A92848FFF745F9082237
:1023800002213248FFF7CBF908220C212348FFF73E
:10239000C6F902940020ADF80C00ADF80E00ADF8BF
:1023A0001000ADF814000C20ADF8120002A9284866
:1023B000FFF7FCFC01212648FFF780FD012240F2D7
:1023C00025512348FFF730FE35208DF8040000200A
:1023D0008DF805008DF8060001208DF8070001A892
:1023E000FEF7A7FC01211A48FFF768FD08B010BDF1
:1023F00070B504460D460BE014F8011B1448FFF7B6
:1024000088FD00BF40211248FFF733FE0028F9D0B5
:102410002800A5F10105EFD170BD000000080240C1
:102420000048004025303258200000000D0A00000E
:10243000450000204000002044000020001401401E
:102440003D000020380000203C000020000C02402D
:102450000050004030B5254800684FF47A72B0FB58
:10246000F2F1481EB0F1807F01D301201BE0481E2D
:102470004FF0E022506150170F22002807DA1307AF
:102480001D0E1B4B00F00F04241F1D5503E0130706
:102490001C0E184B1C5400BF00204FF0E02290612E
:1024A00007201061002008B100BFFEE730BD1249CF
:1024B000086000BF104909680029FBD1704700215E
:1024C00006E0082100BF0A00A1F1010399B2FAD188
:1024D0000200A0F10100F4D170470748006820B164
:1024E00005480068401E044908607047000000204D
:1024F00018ED00E000E400E0480000201CB50121D8
:102500002020FFF7C7FA4FF4E060009000208DF81C
:10251000040003208DF8050001208DF807006946AE
:102520003148FFF771F81CBD38B500200090002439
:102530004FF480712C48FFF7C9F88DF800004FF474
:1025400000712948FFF7C2F88DF801004FF480614F
:102550002548FFF7BBF88DF802009DF8000028B170
:102560009DF8010010B19DF80200D8BB6420FFF770
:102570009EFF4FF480711C48FFF7A8F88DF800000B
:102580004FF400711848FFF7A1F88DF801004FF4DF
:1025900080611548FFF79AF88DF802009DF8000059
:1025A00040B99DF80100012804D19DF802000128DE
:1025B00000D101249DF80000012807D19DF80100F9
:1025C00020B99DF80200012800D102249DF80000E6
:1025D000012807D19DF80100012803D19DF80200D0
:1025E00000B90324204638BD001402401CB5012167
:1025F0002020FFF74FFAFF20009001208DF8040003
:1026000000208DF8060003208DF8050000208DF8CD
:10261000070069461148FEF7F7FF01210F48FFF751
:102620006FF802210D48FFF76BF804210B48FFF704
:1026300067F808210948FFF763F810210748FFF7FA
:102640005FF820210548FFF75BF840210348FFF7BA
:1026500057F880210148FFF753F81CBD00140240D1
:102660001CB501210420FFF715FA012000908DF818
:10267000040000208DF8060003208DF805000020DE
:102680008DF807006946F848FEF7BEFF01221146A3
:10269000F548FFF739F81CBD10B504460020F34992
:1026A0000860F349087000220121EF48FFF72CF879
:1026B0004FF4FA70FFF7FBFE01221146EA48FFF7DC
:1026C00023F815E06420FFF7F2FEE94800780128BE
:1026D0000AD10020E5490860E5490870E5A1E7480E
:1026E00005F060FB00B107E02146E5A005F012FE11
:1026F0002000A4F10104E5D100BFE2A005F00AFE2C
:10270000002C01DC012010BD0020FCE770B505465F
:102710000E4614460020D5490860D5490870314658
:102720002846FFF765FE0CE06420FFF7C0FED6A147
:10273000D24805F037FB00B107E02146D0A005F0F4
:10274000E9FD2000A4F10104EED100BFCDA005F009
:10275000E1FD002C01DC012070BD0020FCE730B55C
:1027600099B004466421684605F011FBC7A3CAA2CC
:10277000CBA1684605F0DEFD0020BC490860BC49DD
:102780000870684605F020FB054629466846FFF7B5
:102790002FFE0DE04FF47A70FFF789FEC6A1B7480F
:1027A00005F000FB00B107E02146B5A005F0B2FD41
:1027B0002000A4F10104EDD100BFB2A005F0AAFDF4
:1027C000002C02DC012019B030BD0020FBE730B541
:1027D00099B004466421684605F0D9FAB848B94A68
:1027E000B9A10368684605F0A5FD00209F4908606F
:1027F0009F490870684605F0E7FA0546294668468D
:10280000FFF7F6FD1BE06420FFF751FEB5A19B48E2
:1028100005F0C8FA00B116E0B4A1984805F0C2FA74
:1028200010B1012019B030BDB2A1944805F0BAFA38
:1028300008B10220F6E7214691A005F06BFD2000CB
:10284000A4F10104DFD100BF8EA005F063FD002CD0
:1028500001DC0320E6E7ACA005F05CFD0020834925
:102860000860834908700C21AFA0FFF7C1FD0CE0A0
:102870006420FFF71CFEB0A1804805F093FA00B178
:1028800007E021467EA005F045FD2000A4F10104EB
:10289000EED100BF002C01DC0420C3E70020C1E71B
:1028A00008B5A8A005F036FD4FF6FF700023A9A2D9
:1028B000322100901E2002F04AFD3220FFF7ECFE8C
:1028C00068B1ABA005F026FD4FF6FF700023AEA265
:1028D000322100901E2002F03AFD012008BDB0A078
:1028E00005F018FD4FF6FF700023B0A232210090D2
:1028F0001E2002F02CFDB3A005F00CFD4FF6FF707A
:102900000023B5A2322100901E2002F020FD3222C9
:102910000E21B8A0FFF7FAFE68B1BAA005F0FAFCE4
:102920004FF6FF700023BEA2322100901E2002F05D
:102930000EFD0220D2E7C1A005F0ECFC4FF6FF70BF
:102940000023C3A2322100901E2002F000FDC748E0
:102950000078002855D1C6A005F0DCFC4FF6FF70CA
:102960000023C8A2322100901E2002F0F0FC322287
:102970001121CBA0FFF7CAFE68B1CEA005F0CAFCBA
:102980004FF6FF700023D3A2322100901E2002F0E8
:10299000DEFC0320A2E7D6A005F0BCFC4FF6FF70DA
:1029A0000023D8A2322100901E2002F0D0FCDBA030
:1029B00005F0B0FC4FF6FF700023DDA2322100903D
:1029C0001E2002F0C4FC1E20FFF7C9FE68B1DFA084
:1029D00005F0A0FC4FF6FF700023E3A23221009027
:1029E0001E2002F0B4FC042078E7E6A005F092FC7B
:1029F0004FF6FF700023E8A2322100901E2002F063
:102A0000A6FCEBA005F086FC4FF6FF700023ECA2BD
:102A1000322100901E2002F09AFC32220E21EEA0FC
:102A2000FFF774FE68B1F0A005F074FC4FF6FF707C
:102A30000023F4A2322100901E2002F088FC08201E
:102A40004CE7F6A005F066FC4FF6FF700023F7A2F6
:102A5000322100901E2002F07AFCF9A005F05AFC09
:102A60004FF6FF700023F5E1000802403800002017
:102A70003D0000207265616479000000CC010020F7
:102A8000256420000D0A00004F4B00006C696C6942
:102A9000616E6731323300006E6F76613636360014
:102AA00041542B43574A41503D222573222C222565
:102AB00073220D0A000000000A0D0A4F4B000000AF
:102AC00080000020781D002041542B43495053546E
:102AD0004152543D22544350222C222573222C254E
:102AE000640D0A00434F4E4E45435400434C4F5330
:102AF00045440000414C524541445920434F4E4EFD
:102B00004543544544000000C1ACBDD3B7FECEF1EF
:102B1000C6F7B3C9B9A6A3ACD7BCB1B8BDF8C8EB6A
:102B2000CDB8B4AB0D0A000041542B434950534576
:102B30004E440D0A000000000D0A4F4B0D0A0D0A0D
:102B40003E000000D7BCB1B8B8B4CEBBC4A3BFE947
:102B50000D0A0000D7BCB1B8B8B4CEBBC4A3BFE95E
:102B60002E2E2E202020202020202020200000009B
:102B7000B8B4CEBBCAA7B0DCA3ACD7BCB1B8D6D86A
:102B8000C6F40D0A00000000B8B4CEBBCAA7B0DC82
:102B9000A3ACD7BCB1B8D6D8C6F4202020202000E2
:102BA000B8B4CEBBB3C9B9A60D0A0000B8B4CEBB49
:102BB000B3C9B9A6202020202020202020202020BA
:102BC00020200000D7BCB1B8C9E8D6C3535441C4D3
:102BD000A3CABD0D0A000000D7BCB1B8C9E8D6C36E
:102BE000535441C4A3CABD2E2E2E202020202020C5
:102BF0002000000041542B43574D4F44453D310DBB
:102C00000A000000C9E8D6C3535441C4A3CABDCAD0
:102C1000A7B0DCA3ACD7BCB1B8D6D8C6F40D0A00B7
:102C2000C9E8D6C3535441C4A3CABDCAA7B0DCA3E4
:102C3000ACD7BCB1B8D6D8C6F4202000C9E8D6C3FA
:102C4000535441C4A3CABDB3C9B9A60D0A000000BC
:102C5000C9E8D6C3535441C4A3CABDB3C9B9A62059
:102C60002020202020202020000000004C000020F8
:102C7000D7BCB1B8C8A1CFFBD7D4B6AFC1ACBDD318
:102C80000D0A0000D7BCB1B8C8A1CFFBD7D4B6AFEE
:102C9000C1ACBDD32E2E2E202020202020200000CD
:102CA00041542B43574155544F434F4E4E3D300DE9
:102CB0000A000000C8A1CFFBD7D4B6AFC1ACBDD3CA
:102CC000CAA7B0DCA3ACD7BCB1B8D6D8C6F40D0A3D
:102CD00000000000C8A1CFFBD7D4B6AFC1ACBDD3B4
:102CE000CAA7B0DCA3ACD7BCB1B8D6D8C6F4200014
:102CF000C8A1CFFBD7D4B6AFC1ACBDD3B3C9B9A6B9
:102D00000D0A0000C8A1CFFBD7D4B6AFC1ACBDD36C
:102D1000B3C9B9A62020202020202000D7BCB1B8FC
:102D2000C1ACBDD3C2B7D3C9C6F70D0A00000000BD
:102D3000D7BCB1B8C1ACBDD3C2B7D3C9C6F72E2E6C
:102D40002E2020202020202000000000C1ACBDD378
:102D5000C2B7D3C9C6F7CAA7B0DCA3ACD7BCB1B859
:102D6000D6D8C6F40D0A0000C1ACBDD3C2B7D3C9D2
:102D7000C6F7CAA7B0DCA3ACD7BCB1B8D6D8C6F4E6
:102D800020000000C1ACBDD3C2B7D3C9C6F7B3C9D8
:102D9000B9A60D0A00000000C1ACBDD3C2B7D3C9AB
:102DA000C6F7B3C9B9A620202020202000000000CB
:102DB000D7BCB1B8C9E8D6C3CDB8B4AB0D0A0000D2
:102DC000D7BCB1B8C9E8D6C3CDB8B4AB2E2E2E202F
:102DD000202020202000000041542B4349504D4F1B
:102DE00044453D310D0A0000C9E8D6C3CDB8B4ABA7
:102DF000CAA7B0DCA3ACD7BCB1B8D6D8C6F40D0A0C
:102E000000000000C9E8D6C3CDB8B4ABCAA7B0DC97
:102E1000A3ACD7BCB1B8D6D8C6F42000C9E8D6C395
:102E2000CDB8B4ABB3C9B9A60D0A0000C9E8D6C382
:102E3000CDB8B4ABB3C9B9A6202020202020000013
:102E4000D7BCB1B8B9D8B1D5B6E0C2B7C1ACBDD363
:102E50000D0A000028A2322100901E2002F077FA0D
:102E600032220D212AA0FFF751FC68B12CA005F0F9
:102E700051FA4FF6FF70002331A2322100901E203C
:102E800002F065FA092029E534A005F043FA4FF66F
:102E9000FF70002336A2322100901E2002F057FA64
:102EA00039A005F037FA4FF6FF7000233BA232211C
:102EB00000901E2002F04BFA6420FFF788FC68B1F6
:102EC0003CA005F027FA4FF6FF70002340A2322104
:102ED00000901E2002F03BFA0A20FFE443A005F018
:102EE00019FA4FF6FF70002345A2322100901E20F0
:102EF00002F02DFA0020F1E4D7BCB1B8B9D8B1D5B1
:102F0000B6E0C2B7C1ACBDD32E2E2E2020000000EB
:102F100041542B4349504D55583D300D0A00000097
:102F2000B9D8B1D5B6E0C2B7C1ACBDD3CAA7B0DC81
:102F3000A3ACD7BCB1B8D6D8C6F40D0A00000000C7
:102F4000B9D8B1D5B6E0C2B7C1ACBDD3CAA7B0DC61
:102F5000A3ACD7BCB1B8D6D8C6F40000B9D8B1D5A7
:102F6000B6E0C2B7C1ACBDD3B3C9B9A60D0A000063
:102F7000B9D8B1D5B6E0C2B7C1ACBDD3B3C9B9A653
:102F80002020202000000000D7BCB1B8C1ACBDD3C8
:102F9000B7FECEF1C6F70D0A00000000D7BCB1B8ED
:102FA000C1ACBDD3B7FECEF1C6F72E2E2E20202009
:102FB00020000000C1ACBDD3B7FECEF1C6F7CAA752
:102FC000B0DCA3ACD7BCB1B8D6D8C6F40D0A0000AB
:102FD000C1ACBDD3B7FECEF1C6F7CAA7B0DCA3AC77
:102FE000D7BCB1B8D6D8C6F400000000C1ACBDD380
:102FF000B7FECEF1C6F7B3C9B9A60D0A00000000AE
:10300000C1ACBDD3B7FECEF1C6F7B3C9B9A6202077
:103010002020000070B505460C4600F095F82846C3
:1030200000F007F900F0AAF8204600F002F900F0DD
:10303000A5F800F041F870BD70B505460E460024B5
:1030400000F082F8691CC8B200F0F3F800F096F8BE
:1030500000BF0DE000F01CF93055032C03D1012016
:1030600000F039F902E0002000F035F9601CC4B22C
:10307000032CEFDB00F020F870BD10B50121B82063
:10308000FFF7C8FF1021B820FFF7C4FF10BD0000F4
:103090001CB50820009001208DF8070000208DF855
:1030A000060001208DF8040002208DF80500694615
:1030B0009648FEF7A9FA1CBD10B5FFF7E9FF4021BD
:1030C0009248FEF71FFB08219048FEF71BFB0420E7
:1030D000FFF7F5F940218D48FEF712FB08218B48D8
:1030E000FEF70EFB0420FFF7EAF910BD1CB5012125
:1030F0000846FEF7CFFC4820009001208DF8040020
:1031000000208DF8060002208DF8050001208DF8C2
:10311000070069467D48FEF777FAFFF7CDFF1CBD33
:103120001CB50820009000208DF807008DF80600DF
:103130008DF8040069467548FEF766FA1CBD10B5A7
:103140000A20FFF7BCF910BD10B5FFF7A1FF082159
:103150006E48FEF7D5FA40216C48FEF7D1FA0420FC
:10316000FFF7ADF908216948FEF7CCFA0420FFF714
:10317000A6F940216548FEF7C5FA10BD10B5002438
:10318000FFF7CEFF08216148FEF7BAFA0120FFF7EA
:1031900096F940215D48FEF7B3FA0120FFF78FF959
:1031A00007E0601CC4B2FA2C03DDFFF785FF0120A5
:1031B00010BD08215548FEF789FA0028F1D14021B9
:1031C0005248FEF79FFA0020F2E710B540214F4821
:1031D000FEF798FAFFF75CFF08214C48FEF792FAD9
:1031E0000220FFF76CF940214848FEF789FA0220D7
:1031F000FFF765F940214548FEF784FA10BD10B588
:1032000040214248FEF77EFAFFF742FF08213F487F
:10321000FEF776FA0220FFF752F940213B48FEF70D
:103220006FFA0220FFF74BF940213848FEF76AFA9F
:1032300010BD70B50446FFF72BFF40213348FEF761
:1032400061FA002521E004F08000802804D10821E3
:103250002E48FEF755FA03E008212C48FEF752FAF3
:103260006006040E0220FFF72AF940212748FEF7E6
:1032700047FA0220FFF723F940212448FEF742FADB
:103280000220FFF71CF9681CC5B2082DDBDB70BDFE
:1032900070B50024FFF744FF002516E06006040E19
:1032A00040211A48FEF72CFAFFF749FF082117487A
:1032B000FEF70CFA08B144F0010440211348FEF770
:1032C00021FAFFF73CFF681CC5B2082DE6DBFFF7CB
:1032D000DFFE204670BD10B50446012C04D1082144
:1032E0000A48FEF70DFA03E008210848FEF70AFA3B
:1032F00040210648FEF704FAFFF721FF402103486A
:10330000FEF700FAFFF71BFF10BD000000000240AF
:1033100070B505460C4622462946F7480068801CD1
:1033200004F01CFD2046E11704EB1161090AF24A82
:1033300012681170E11704EB11610912A4EB01216D
:10334000ED4A12685170EC48006800F5FA70EA49DD
:10335000086008460068E9490968884202D1E848DF
:10336000E549086070BD70B504460D460220E54988
:103370000860E5490860204604F026FDC01CE349CA
:1033800008608220E2490870DF480078DF49097848
:103390000844DF494870002088700120C87020462A
:1033A00004F012FD000ADA490871204604F00CFD11
:1033B000D7494871204604F007FD064632462146AB
:1033C000D348801D04F0CAFC204604F0FDFC801D9B
:1033D000CF490D54CB480068CB4A12681044CB4A01
:1033E00012688118CA48FFF793FF70BD70B50120BD
:1033F000C44908600A20C4490860C6480068001D26
:10340000C54909680844801CC44909680844BF4983
:103410000860BD480068096844181020BC4908705D
:1034200000BF2046E11704EB5161C911A4EBC1159F
:10343000E11704EB5161CC11002C01DD45F0800552
:10344000B348B04A12688554AE480068401CAD4984
:103450000860002CE5DC0021AD4AAA480068115440
:103460000421A8480068401C11544D21A54800685B
:10347000801C11545121A3480068C01C11545421D0
:10348000A0480068001D11549E480068401D11545A
:1034900004219C480068801D1154C221994800688D
:1034A000C01D115400219748006808301154642150
:1034B000944800680930115496490868C11700EB18
:1034C0001161C1F30722924B8E4909680A315A549F
:1034D00090490868C11700EB11610912A0EB0121A6
:1034E000CAB2884909680B315A541A468549096895
:1034F0000C31501887490A68894904F02FFC864925
:103500000868C11700EB1161C1F307227D49096802
:103510000C31804B1B6819447D4B5A547E49086816
:10352000C11700EB11610912A0EB0121CAB2754964
:1035300009680D31774B1B681944754B5A54714912
:1035400009680E31734A126811441A468818724984
:103550000A68744904F002FC70490868C11700EB5E
:103560001161C1F30722674909680E31694B1B6875
:103570001944694B1B681944654B5A5467490868DC
:10358000C11700EB11610912A0EB0121CAB25D491C
:1035900009680F315F4B1B6819445F4B1B68194466
:1035A0005B4B5A545749096810315A4A1268114402
:1035B000594A126811441A46881858490A685A49E3
:1035C00004F0CCFB4F4800684F4A126810444F4A41
:1035D000126881184E48FFF79BFE70BD10B5534826
:1035E00053490860084600685249086052485349E8
:1035F0000860434840490860084600685049086030
:1036000050483E49086050485049086008460068E4
:103610004F4908604F4850490860FFF7E7FE002116
:103620004EA0FFF7A0FE00205049087050490870D6
:103630005049087010BD10B5A2B080220021384852
:1036400004F09EFB4CA24EA1354804F073FE3448B2
:1036500004F0BAFB2F49086080220021314804F0B1
:103660008FFB4AA344A24CA12E4804F063FE2D48D0
:1036700004F0AAFB284908608022002102A804F077
:103680007FFB42A03CA33CA245A1009002A804F00D
:1036900051FE02A804F098FB0446202049A3224AC8
:1036A0002146009002A801F03FFF1F4804F08CFB68
:1036B0001A490860802200214B4804F061FB4BA1AD
:1036C000494804F037FE40F25B704C4908600846F8
:1036D000454902684AA004F01DFE11494DA004F0BE
:1036E00019FE10494FA004F015FE0F4951A004F037
:1036F00011FE22B010BD00005C000020640000201C
:10370000D408002084000020880000208C000020C5
:10371000F81D002074000020780000207C000020AC
:10372000F81B0020781C0020F81C0020F802002064
:103730005000002054000020A8070020580000205E
:1037400060000020A41000209812002068000020D3
:103750006C000020CC1A002070000020737562738A
:1037600063726962655F746F706963009300002023
:10377000920000209000002072657363756531002F
:1037800025735F66323931343566350061317944ED
:10379000684A31505A5A610025732625730000008B
:1037A000636C69656E7449642573646576696365E5
:1037B0004E616D65257370726F647563744B6579C6
:1037C0002573000033653861636565656661363869
:1037D0006439343632613866626262313933663751
:1037E0003235363100000000781D00203131392E8D
:1037F00039312E3232372E32313300008000002032
:10380000B7FE20CEF120C6F7A3BA25733A25640D82
:103810000A000000BFCDBBA7B6CB4944A3BA2573AD
:103820000D0A0000D3C320BBA720C3FBA3BA257396
:103830000D0A0000C3DC20202020C2EBA3BA2573B0
:103840000D0A000010B5C0208D4908700020487096
:1038500002218B48FFF75CFD10BD2DE9F0470546BE
:1038600088461646012087490860284604F0ACFACD
:10387000801C8549086085480660084600688349C1
:103880000968441830207E49087000BF2046E117BF
:1038900004EB5161C911A4EBC117E11704EB5161AD
:1038A000CC11002C01DD47F080077548754A12687D
:1038B000875474480068401C72490860002CE5DC9D
:1038C000284604F081FAC0F307216D4A6D4800686C
:1038D0001154284604F078FAC1B2694A6948006870
:1038E000401C1154284604F06FFA8146644A654929
:1038F0000968891C50184A46294604F02FFA2846C0
:1039000004F062FA5F490968891C08445C4900EBCD
:10391000010932464146484604F020FA59480068F9
:10392000594A12681044594A126881185448FFF7DE
:10393000EFFCBDE8F08770B505460C4622462946E7
:1039400053480068801C04F009FA2046E11704EB94
:103950001161090A4E4A12681170E11704EB1161F6
:103960000912A4EB01214A4A12685170002148480B
:103970000268A01C11544648006800F5967044493E
:1039800008600846006843490968884202D14248F5
:103990003F49086070BD2DE9F04FD1B0804698F8DE
:1039A000011098F8000001EB0020509008F1020788
:1039B0000020814605460646834601244FF0010A51
:1039C00000BF0BF1010B00BF281917F8009009F098
:1039D0007F0000FB0A664FEACA1A641C09F08000E7
:1039E0000028F1D13019054431195098401A5090EF
:1039F0000124A246002650980028E2D1594627A06B
:103A000004F088FC00200546064600BF00BF4C902D
:103A100030E000BF281917F8009009F07F0000FB84
:103A20000A664FEACA1A641C09F080000028F1D126
:103A3000601C2844395C6019385C01EB0020801C54
:103A40004F904F98301A4E9029194F9808444D9036
:103A50004D98391801A84E9A04F080F901A84E99A2
:103A6000FFF769FF301905440124A24600264C984F
:103A7000401C4C904C985845CBDB51B0BDE8F08FC2
:103A8000F81D002084000020880000208C00002009
:103A9000680000207000002098120020B1BEB4CE53
:103AA000BDD3CAD5C1CB2564B8F6CDC6CBCDCAFD32
:103AB000BEDD0D0A000000001CB501210420FDF749
:103AC000E9FF4FF40050009001208DF80400002021
:103AD0008DF8060003208DF8050000208DF8070002
:103AE00069460448FDF790FD4FF400510148FDF789
:103AF00009FE1CBD00080240002106E0082100BFAD
:103B00000A00A1F1010399B2FAD10200A0F101006B
:103B1000F4D1704708B50AE00021009102E0009955
:103B2000491C009144F6206200999142F7D30100AC
:103B3000A0F10100F0D108BDFE4908807047FD49A1
:103B4000891C0880704708B5FA48801C00880090DE
:103B5000BDF8000008BDF74A1080921C1180704724
:103B600010B504462046FFF7E7FF0520FFF7C4FF26
:103B7000FFF7E9FF10BDF0480089EE490880704763
:103B8000EC49891C0880704700B502460B46EA489C
:103B9000808845F2105188421FD1E7494889FFF7D4
:103BA000CBFF1012FFF7CBFFE3494989491C88B2CC
:103BB000FFF7C2FFD0B2FFF7C2FFDF498889FFF7E6
:103BC000BBFF1812FFF7BBFFDB498989491C88B28C
:103BD000FFF7B2FFD8B2FFF7B2FF00BD30B5044621
:103BE00000230025D448808845F2105188427CD1BA
:103BF000082C1CD2DFE804F00406090C0F1215187B
:103C000000BF14E043F0800311E043F040030EE0F6
:103C100043F0C0030BE043F0200308E043F06003EF
:103C200005E043F0A00302E043F0E00300BF00BF63
:103C3000C148808845F21051884201D14FF458554F
:103C4000BD48808845F21051884201D043F00803F6
:103C500019462846FFF77FFFB748808845F2105184
:103C6000884253D1B4494889FFF766FF0020FFF727
:103C700066FFB1494989491C88B2FFF75DFF002002
:103C8000FFF75DFFAC494989891C88B2FFF754FFF3
:103C9000A9490988491EC1F30F20FFF750FFA64923
:103CA0004989C91C88B2FFF747FFA3490978491E13
:103CB000C8B2FFF744FFA0498889FFF73DFF002005
:103CC000FFF73DFF9C498989491C88B2FFF734FF03
:103CD0000020FFF734FF98498989891C88B2FFF7D3
:103CE0002BFF95494988491E00E00FE0C1F30F20E2
:103CF000FFF725FF90498989C91C88B2FFF71CFF8F
:103D00008D498978491EC8B2FFF719FF30BD70B5DB
:103D100005460E46144631462846FFF735FFFFF7A5
:103D20002AFF8448801C048070BD10B503460C46F1
:103D30008148808845F2105188421FD17E494889C8
:103D4000FFF7FAFE1812FFF7FAFE7B494989491C72
:103D500088B2FFF7F1FED8B2FFF7F1FE7649888905
:103D6000FFF7EAFE2012FFF7EAFE73498989491C32
:103D700088B2FFF7E1FEE0B2FFF7E1FE6E4800898E
:103D80006C490880881C028010BD10B50446F4B947
:103D9000002069498871F02008804FF4A0704880A5
:103DA0000846808845F2105188422ED14FF4305099
:103DB000614908814FF4285048814FF42C50888184
:103DC0004FF4F07008804FF4487048801DE00120E7
:103DD000594988714FF4A0700880F0204880084647
:103DE000808845F2105188420FD14FF4305052492B
:103DF00008814FF4285048814FF42C5088814FF4AB
:103E0000487008804FF4F07048800520FFF7E6FE08
:103E100010BD70B5044600264748058840884543D4
:103E200000210846FFF7B0FEFFF7A5FE00BF03E044
:103E30004048801C0480761CAE42F9D370BD00B5AA
:103E4000A1B00020209001210846FDF723FE4FF489
:103E500000701E9001208DF87C0000208DF87E00FF
:103E600003208DF87D0002208DF87F001EA93348C5
:103E7000FDF7CAFB01217820FDF70CFE0121084661
:103E8000FDF72AFE4CF233701E9002208DF87C0064
:103E900000208DF87E0003208DF87D0001208DF834
:103EA0007F001EA92648FDF7AFFB4FF680701E90DD
:103EB00002208DF87C0000208DF87E0003208DF814
:103EC0007D0001208DF87F001EA91E48FDF79CFB98
:103ED00002201E908DF87C0000208DF87E000320CB
:103EE0008DF87D0001208DF87F001EA91648FDF792
:103EF0008BFB4FF480501E9002208DF87C00002038
:103F00008DF87E0003208DF87D0001208DF87F0064
:103F10001EA90D48FDF778FB0C2200210848FDF78B
:103F2000FEFB0C2201210648FDF7F9FB0C220421BF
:103F300003480BE0FE0F006CEC1F00200000024065
:103F4000000C02400010024000180240FDF7E7FBA1
:103F50000C220521FE48FDF7E2FB0C220821FC485B
:103F6000FDF7DDFB0C220921F948FDF7D8FB0C22F7
:103F70000A21F748FDF7D3FB0C220E21F448FDF788
:103F8000CEFB0C220F21F248FDF7C9FB0C220721C2
:103F9000F048FDF7C4FB0C220821EE48FDF7BFFBFB
:103FA0000C220921EB48FDF7BAFB0C220A21E94853
:103FB000FDF7B5FB0C220B21E648FDF7B0FB0C2208
:103FC0001146E448FDF7ABFB0C220D21E148FDF75B
:103FD000A6FB0C220E21DF48FDF7A1FB0C220F21CE
:103FE000DC48FDF79CFB0C220121DB48FDF797FB29
:103FF0000C221146D848FDF792FB0F2008900020B4
:1040000009903C200A9000200B900C900D900E908F
:1040100009200190002002900820039000200490C5
:1040200005900690079006200F90002010901190A8
:104030001020129000201390159014901690179055
:104040004FF480501890002019904FF480401A903F
:1040500000201B9008A81C9001A81D900FA8FCF739
:104060007CFF01210620FDF724F86420FFF752FDB4
:104070004FF45A40FFF760FDFFF765FDB7498880B0
:104080004FF45B40FFF758FDFFF75DFDB3498880B3
:10409000084680884FF6FF7101EA0020AF4988800A
:1040A0004FF45C40FFF748FDFFF74DFDAB498988B1
:1040B0000843AA49888008468088B0F5004F02D19D
:1040C00045F210508880A548808845F210518842FA
:1040D0001CD1A348006820F00F004FF02041C1F828
:1040E0001C010846D0F81C0120F47060C1F81C01C6
:1040F0000846D0F81C0140F00300C1F81C01084636
:10410000D0F81C0140F40070C1F81C01934880886D
:1041100045F2105188427DD155214FF47040FFF790
:104120001AFDAA214FF20100FFF715FD52214FF2AF
:104130000200FFF710FD08214FF20300FFF70BFD0F
:1041400001214FF20400FFF706FD0D214FF430402E
:10415000FFF701FD0D214BF20100FFF7FCFC0D21E3
:104160004BF20200FFF7F7FC34214FF43640FFF723
:10417000F2FC34214BF20160FFF7EDFC34214BF2ED
:104180000260FFF7E8FC0D214FF43140FFF7E3FC3C
:104190000D214BF20110FFF7DEFC0D214BF2021056
:1041A000FFF7D9FC34214FF43740FFF7D4FC34211A
:1041B0004BF20170FFF7CFFC34214BF20270FFF796
:1041C000CAFC00214FF43240FFF7C5FC00214BF23E
:1041D0000120FFF7C0FC00214BF20220FFF7BBFCDF
:1041E00024214FF43840FFF7B6FC24214BF60100A0
:1041F000FFF7B1FC24214BF60200FFF7ACFC0121D4
:104200004FF43F40FFF7A7FC0F214FF43340FFF777
:10421000A2FC00E0FEE30F214BF20130FFF79BFC14
:104220000F214BF20230FFF796FC34214FF4394056
:10423000FFF791FC34214BF60110FFF78CFC342181
:104240004BF60210FFF787FC08214FF43540FFF7CB
:1042500082FC08214BF20150FFF77DFC08214BF254
:104260000250FFF778FC03214FF44240FFF773FC44
:1042700024214FF43A40FFF76EFC24214BF6012035
:10428000FFF769FC24214BF60220FFF764FC0021B4
:104290004FF43C40FFF75FFC78214BF60140FFF7FD
:1042A0005AFC00214BF60240FFF755FC00214FF469
:1042B0003D40FFF750FC78214BF60150FFF74BFCD7
:1042C00000214BF60250FFF746FC00214FF43E4020
:1042D000FFF741FC64214BF60160FFF73CFC002135
:1042E0004FF45140FFF737FC33214DF20110FFF737
:1042F00032FC00214DF20210FFF72DFC34214DF26B
:104300000310FFF728FC00214DF20410FFF723FCF7
:104310003A214DF20510FFF71EFC00214DF2061068
:10432000FFF719FC4A214DF20710FFF714FC00219A
:104330004DF20810FFF70FFC5C214DF20910FFF75A
:104340000AFC00214DF20A10FFF705FC812109E06B
:10435000000C02400010024000180240EC1F002038
:104360001C0100A04DF20B10FFF7F5FB00214DF2F0
:104370000C10FFF7F0FBA6214DF20D10FFF7EBFB41
:1043800000214DF20E10FFF7E6FBE5214DF20F1074
:10439000FFF7E1FB01214DF21010FFF7DCFB1321C9
:1043A0004DF21110FFF7D7FB01214DF21210FFF76C
:1043B000D2FB54214DF21310FFF7CDFB01214DF23A
:1043C0001410FFF7C8FB82214DF21510FFF7C3FB55
:1043D00001214DF21610FFF7BEFBCA214DF2171056
:1043E000FFF7B9FB02214DF21810FFF7B4FB0021D3
:1043F0004DF21910FFF7AFFB02214DF21A10FFF733
:10440000AAFB01214DF21B10FFF7A5FB02214DF283
:104410001C10FFF7A0FB34214DF21D10FFF79BFB92
:1044200002214DF21E10FFF796FB67214DF21F107F
:10443000FFF791FB02214DF22010FFF78CFB842146
:104440004DF22110FFF787FB02214DF22210FFF7FA
:1044500082FBA4214DF22310FFF77DFB02214DF2D8
:104460002410FFF778FBB7214DF22510FFF773FBFF
:1044700002214DF22610FFF76EFBCF214DF22710DF
:10448000FFF769FB02214DF22810FFF764FBDE21E4
:104490004DF22910FFF75FFB02214DF22A10FFF7C2
:1044A0005AFBF2214DF22B10FFF755FB02214DF282
:1044B0002C10FFF750FBFE214DF22D10FFF74BFBA8
:1044C00003214DF22E10FFF746FB10214DF22F1065
:1044D000FFF741FB03214DF23010FFF73CFB332186
:1044E0004DF23110FFF737FB03214DF23210FFF789
:1044F00032FB6D214DF23310FFF72DFB00214FF4FD
:104500005240FFF728FB33214DF20120FFF723FB38
:1045100000214DF20220FFF71EFB34214DF2032053
:10452000FFF719FB00214DF20420FFF714FB3A219D
:104530004DF20520FFF70FFB00214DF20620FFF79B
:104540000AFB4A214DF20720FFF705FB00214DF23F
:104550000820FFF700FB5C214DF20920FFF7FBFA72
:1045600000214DF20A20FFF7F6FA81214DF20B20CF
:10457000FFF7F1FA00214DF20C20FFF7ECFAA6212B
:104580004DF20D20FFF7E7FA00214DF20E20FFF764
:10459000E2FAE5214DF20F20FFF7DDFA01214DF29D
:1045A0001020FFF7D8FA13214DF21120FFF7D3FAAC
:1045B00001214DF21220FFF7CEFA54214DF21320C3
:1045C000FFF7C9FA01214DF21420FFF7C4FA822146
:1045D0004DF21520FFF7BFFA01214DF21620FFF72B
:1045E000BAFACA214DF21720FFF7B5FA02214DF2AF
:1045F0001820FFF7B0FA00214DF21920FFF7ABFAAF
:1046000002214DF21A20FFF7A6FA01214DF21B20DC
:10461000FFF7A1FA02214DF21C20FFF79CFA34218A
:104620004DF21D20FFF797FA02214DF21E20FFF7F1
:1046300092FA67214DF21F20FFF78DFA02214DF209
:104640002020FFF788FA84214DF22120FFF783FA1A
:1046500002214DF22220FFF77EFAA4214DF2232001
:10466000FFF779FA02214DF22420FFF774FAB721FF
:104670004DF22520FFF76FFA02214DF22620FFF7B9
:104680006AFACF214DF22720FFF765FA02214DF299
:104690002820FFF760FADE214DF22920FFF75BFAB0
:1046A00002214DF22A20FFF756FAF2214DF22B207B
:1046B000FFF751FA02214DF22C20FFF74CFAFE21B0
:1046C0004DF22D20FFF747FA03214DF22E20FFF780
:1046D00042FA10214DF22F20FFF73DFA03214DF24F
:1046E0003020FFF738FA33214DF23120FFF733FA4B
:1046F00003214DF23220FFF72EFA6D214DF23320C7
:10470000FFF729FA00214FF45340FFF724FA332131
:104710004DF20130FFF71FFA00214DF20230FFF792
:104720001AFA34214DF20330FFF715FA00214DF249
:104730000430FFF710FA3A214DF20530FFF70BFA7B
:1047400000214DF20630FFF706FA4A214DF20730FC
:10475000FFF701FA00214DF20830FFF7FCF95C2168
:104760004DF20930FFF7F7F900214DF20A30FFF75B
:10477000F2F981214DF20B30FFF7EDF900214DF2F6
:104780000C30FFF7E8F9A6214DF20D30FFF7E3F901
:1047900000214DF20E30FFF7DEF9E5214DF20F302A
:1047A000FFF7D9F901214DF21030FFF7D4F91321A9
:1047B0004DF21130FFF7CFF901214DF21230FFF722
:1047C000CAF954214DF21330FFF7C5F901214DF21A
:1047D0001430FFF7C0F982214DF21530FFF7BBF915
:1047E00001214DF21630FFF7B6F9CA214DF217300C
:1047F000FFF7B1F902214DF21830FFF7ACF90021B3
:104800004DF21930FFF7A7F902214DF21A30FFF7E8
:10481000A2F901214DF21B30FFF79DF902214DF263
:104820001C30FFF798F934214DF21D30FFF793F952
:1048300002214DF21E30FFF78EF967214DF21F3035
:10484000FFF789F902214DF22030FFF784F9842126
:104850004DF22130FFF77FF902214DF22230FFF7B0
:104860007AF9A4214DF22330FFF775F902214DF2B8
:104870002430FFF770F9B7214DF22530FFF76BF9BF
:1048800002214DF22630FFF766F9CF214DF2273095
:10489000FFF761F902214DF22830FFF75CF9DE21C4
:1048A0004DF22930FFF757F902214DF22A30FFF778
:1048B00052F9F2214DF22B30FFF74DF902214DF262
:1048C0002C30FFF748F9FE214DF22D30FFF743F968
:1048D00003214DF22E30FFF73EF910214DF22F301B
:1048E000FFF739F903214DF23030FFF734F9332166
:1048F0004DF23130FFF72FF903214DF23230FFF73F
:104900002AF96D214DF23330FFF725F900214FF4DC
:104910005440FFF720F933214DF20140FFF71BF916
:1049200000214DF20240FFF716F934214DF2034009
:10493000FFF711F900214DF20440FFF70CF93A217D
:104940004DF20540FFF707F900214DF20640FFF751
:1049500002F94A214DF20740FFF7FDF800214DF220
:104960000840FFF7F8F85C214DF20940FFF7F3F833
:1049700000214DF20A40FFF7EEF881214DF20B4085
:10498000FFF7E9F800214DF20C40FFF7E4F8A6210B
:104990004DF20D40FFF7DFF800214DF20E40FFF71A
:1049A000DAF8E5214DF20F40FFF7D5F801214DF27D
:1049B0001040FFF7D0F813214DF21140FFF7CBF86C
:1049C00001214DF21240FFF7C6F854214DF2134079
:1049D000FFF7C1F801214DF21440FFF7BCF8822126
:1049E0004DF21540FFF7B7F801214DF21640FFF7E1
:1049F000B2F8CA214DF21740FFF7ADF802214DF28F
:104A00001840FFF7A8F800214DF21940FFF7A3F86E
:104A1000022100E00BE34DF21A40FFF79CF8012160
:104A20004DF21B40FFF797F802214DF21C40FFF7B3
:104A300092F834214DF21D40FFF78DF802214DF21E
:104A40001E40FFF788F867214DF21F40FFF783F8FB
:104A500002214DF22040FFF77EF884214DF22140E3
:104A6000FFF779F802214DF22240FFF774F8A421F4
:104A70004DF22340FFF76FF802214DF22440FFF77B
:104A80006AF8B7214DF22540FFF765F802214DF293
:104A90002640FFF760F8CF214DF22740FFF75BF883
:104AA00002214DF22840FFF756F8DE214DF2294051
:104AB000FFF751F802214DF22A40FFF74CF8F2219E
:104AC0004DF22B40FFF747F802214DF22C40FFF743
:104AD00042F8FE214DF22D40FFF73DF803214DF243
:104AE0002E40FFF738F810214DF22F40FFF733F832
:104AF00003214DF23040FFF72EF833214DF23140C3
:104B0000FFF729F803214DF23240FFF724F86D2119
:104B10004DF23340FFF71FF800214FF45540FFF7E7
:104B20001AF833214DF20150FFF715F800214DF22C
:104B30000250FFF710F834214DF20350FFF70BF845
:104B400000214DF20450FFF706F83A214DF20550CE
:104B5000FFF701F800214DF20650FEF7FCFF4A2155
:104B60004DF20750FEF7F7FF00214DF20850FEF717
:104B7000F2FF5C214DF20950FEF7EDFF00214DF2EE
:104B80000A50FEF7E8FF81214DF20B50FEF7E3FFDC
:104B900000214DF20C50FEF7DEFFA6214DF20D5024
:104BA000FEF7D9FF00214DF20E50FEF7D4FFE521AC
:104BB0004DF20F50FEF7CFFF01214DF21050FEF7DE
:104BC000CAFF13214DF21150FEF7C5FF01214DF22E
:104BD0001250FEF7C0FF54214DF21350FEF7BBFFF9
:104BE00001214DF21450FEF7B6FF82214DF215500F
:104BF000FEF7B1FF01214DF21650FEF7ACFFCA21BE
:104C00004DF21750FEF7A7FF02214DF21850FEF7A4
:104C1000A2FF00214DF21950FEF79DFF02214DF237
:104C20001A50FEF798FF01214DF21B50FEF793FF3B
:104C300002214DF21C50FEF78EFF34214DF21D5023
:104C4000FEF789FF02214DF21E50FEF784FF672117
:104C50004DF21F50FEF77FFF02214DF22050FEF76C
:104C60007AFF84214DF22150FEF775FF02214DF2AB
:104C70002250FEF770FFA4214DF22350FEF76BFF88
:104C800002214DF22450FEF766FFB7214DF2255068
:104C9000FEF761FF02214DF22650FEF75CFFCF21A7
:104CA0004DF22750FEF757FF02214DF22850FEF734
:104CB00052FFDE214DF22950FEF74DFF02214DF249
:104CC0002A50FEF748FFF2214DF22B50FEF743FF2A
:104CD00002214DF22C50FEF73EFFFE214DF22D50E9
:104CE000FEF739FF03214DF22E50FEF734FF10215D
:104CF0004DF22F50FEF72FFF03214DF23050FEF7FB
:104D00002AFF33214DF23150FEF725FF03214DF2EA
:104D10003250FEF720FF6D214DF23350FEF71BFF9E
:104D200000214FF45640FEF716FF33214DF201608B
:104D3000FEF711FF00214DF20260FEF70CFF342157
:104D40004DF20360FEF707FF00214DF20460FEF70D
:104D500002FF3A214DF20560FEF7FDFE00214DF203
:104D60000660FEF7F8FE4A214DF20760FEF7F3FEFB
:104D700000214DF20860FEF7EEFE5C214DF2096065
:104D8000FEF7E9FE00214DF20A60FEF7E4FE812104
:104D90004DF20B60FEF7DFFE00214DF20C60FEF7D6
:104DA000DAFEA6214DF20D60FEF7D5FE00214DF290
:104DB0000E60FEF7D0FEE5214DF20F60FEF7CBFE50
:104DC00001214DF21060FEF7C6FE13214DF2116075
:104DD000FEF7C1FE01214DF21260FEF7BCFE542128
:104DE0004DF21360FEF7B7FE01214DF21460FEF79D
:104DF000B2FE82214DF21560FEF7ADFE01214DF2AB
:104E00001660FEF7A8FECA214DF21760FEF7A3FE5A
:104E100002214DF21860FEF79EFE00214DF219604E
:104E2000FEF799FE02214DF21A60FEF794FE012171
:104E30004DF21B60FEF78FFE02214DF21C60FEF763
:104E40008AFE34214DF21D60FEF785FE02214DF2EF
:104E50001E60FEF780FE67214DF21F60FEF77BFEAD
:104E600002214DF22060FEF776FE84214DF2216092
:104E7000FEF771FE02214DF22260FEF76CFEA421C6
:104E80004DF22360FEF767FE02214DF22460FEF72B
:104E900062FEB7214DF22560FEF75DFE02214DF264
:104EA0002660FEF758FECF214DF22760FEF753FE35
:104EB00002214DF22860FEF74EFEDE214DF2296000
:104EC000FEF749FE02214DF22A60FEF744FEF22170
:104ED0004DF22B60FEF73FFE02214DF22C60FEF7F3
:104EE0003AFEFE214DF22D60FEF735FE03214DF214
:104EF0002E60FEF730FE10214DF22F60FEF72BFEE4
:104F000003214DF23060FEF726FE33214DF2316071
:104F1000FEF721FE03214DF23260FEF71CFE6D21EB
:104F20004DF23360FEF717FE55214FF47040FEF747
:104F300012FEAA214FF20100FEF70DFE52214FF2A0
:104F40000200FEF708FE08214FF20300FEF703FE01
:104F500000214FF20400FEF7FEFDCC214FF431405A
:104F6000FEF7F9FD00214BF20110FEF7F4FD0521DB
:104F70004FF43640FEF7EFFD70214FF43740FEF757
:104F8000EAFD70214BF20170FEF7E5FD01214FF4BF
:104F90003840FEF7E0FD03214BF60100FEF7DBFD94
:104FA00003214BF60200FEF7D6FD03214BF603006A
:104FB000FEF7D1FD02214FF43C40FEF7CCFD00216D
:104FC0004BF60140FEF7C7FD00214BF60240FEF70D
:104FD000C2FDD0214FF44940FEF7BDFD02214CF641
:104FE0000110FEF7B8FD50214CF60210FEF7B3FD9C
:104FF00050214CF60310FEF7AEFD50214CF6041084
:10500000FEF7A9FD00214FF45450FEF7A4FD5521F1
:105010004FF46850FEF79FFD4FF48850FEF78CFD6B
:105020007820FEF769FD4FF42450FEF785FD01203E
:10503000FEF7ABFE4FF40071F948FCF761FB4FF649
:10504000FF70FEF7E6FE21B000BD2DE9FF4F84B0F2
:1050500081468A460020029083460698A0EB090507
:105060000798A0EB0A06CDF80490CDF800A0002D1B
:1050700001DD012705E00DB9002702E04FF0FF3701
:105080006D42002E02DD4FF0010806E016B94FF028
:10509000000802E04FF0FF387642B54201DD2C46B1
:1050A00000E03446002003901EE0009A91B2019A7D
:1050B00090B2119AFEF72BFE029828440290B34456
:1050C0000298A04205DD0298001B02900198384426
:1050D0000190A34504DDABEB040B00984044009025
:1050E0000398401C80B20390611C03988842DCDD69
:1050F00008B0BDE8F08F2DE9F84105460E46174689
:105100009846079C33463A46314628460094FFF7B6
:105110009CFF43462A46314628460094FFF795FFF8
:1051200043463A46414628460094FFF78EFF4346E1
:105130003A46314638460094FFF787FFBDE8F881CC
:105140002DE9F04F8BB006460F4690469A464FF039
:10515000000900BF00BF98F80000029098F8010015
:1051600001900198A0F1A1010298A138C0EB0012B2
:1051700002EB401001EB40004FEA401BA9485844A5
:105180000090002406E00BEB0400A649085C03A98C
:105190000855641C202CF6DB002428E003A810F836
:1051A00014904FF6FF7000EA09296000401C03A923
:1051B000085C40EA0909002516E0C5F10F0049FA2C
:1051C00000F000F0010038B13A1991B2721990B2B2
:1051D0005246FEF79CFD06E03A1991B2721990B260
:1051E000149AFEF794FD6D1C102DE6DB641C102C48
:1051F000D4DB0BB0BDE8F08F2DE9F84F80460E46AA
:1052000017461C46B3462046E31704EB5373DB10E6
:1052100021464FEAE47C04EB5C7C4FEAEC0CA4EB07
:10522000CC0CBCF1000F02D04FF0010C01E04FF0AC
:10523000000C6344224604EBD27C4FEA6C0C03FB67
:105240000CF3DBB20093A7F12000C7B2002552E0B7
:105250000C2C07D107EB4700734901EB800010F8D5
:10526000059013E0102C05D1704800EB071010F8E2
:1052700005900BE0182C07D107EBC7006C4901EB38
:10528000800010F8059001E0BDE8F88F4FF0000AAB
:105290002BE009F0800028B1314640460A9AFEF71B
:1052A00044FD04E0314640460B9AFEF73EFD4FEACE
:1052B00049604FEA1069701C86B25E484088B0426F
:1052C00000DCE1E7A6EB0B00A0420AD15E4608F144
:1052D00001001FFA80F857480088404500DCD3E7FA
:1052E00006E00AF1010000F0FF0ABAF1080FD0DB76
:1052F00000BF681CC5B200988542A9DB00BFC3E7A8
:105300002DE9FC4305460C4616461F46DDF8249061
:105310004FF0100847480088A84203DA002504EB44
:10532000080084B243484088A04206DA00200546BF
:1053300004464FF6FF70FEF76CFDCDE90079327838
:10534000434621462846FFF757FFBDE8FC832DE979
:10535000F84105460F4614469846079E19E0207806
:10536000A1280BDD43462246394628460096FFF722
:10537000E7FEA41C05F1100085B20AE04346224670
:10538000394628460096FFF7BBFF641C05F108006C
:1053900085B220780028E2D1BDE8F88170B50546D5
:1053A0000E46144631462846FEF7EEFBFEF7E3FBB9
:1053B0002046FEF7E5FB70BD2DE9F04304460D469F
:1053C00016461F46DDF81C90C84600201A49088082
:1053D0001EE000201949088010E038F8022B164B17
:1053E0001B882B4499B2154B1B88234498B2FFF7B6
:1053F000D5FF12480088401C10490880301B0F4917
:1054000009888842E9DC0C480088401C0A49088069
:10541000781B094909888842DBDCBDE8F08300007D
:1054200000000240188C000878A10408ECA50408CC
:10543000DCAB0408EC1F0020960000209400002044
:105440002DE9F043BBB00646884615461F46DDF8F9
:1054500008910EB105B117B93BB0BDE8F083B9F1C1
:10546000400F00DDF8E740212BA802F090FC40211E
:105470001BA802F08CFC4A4639462BA802F06EFCB1
:105480004A4639461BA802F069FC00240CE02BA810
:10549000005D80F036002BA908551BA8005D80F048
:1054A0005C001BA90855641C402CF0DB01A800F02F
:1054B00040F901A800F057F940222BA901A800F0FB
:1054C000EAFD4246314601A800F0E5FD17A901A812
:1054D00000F01FFE01A800F02CF901A800F043F92C
:1054E00040221BA901A800F0D6FD102217A901A88F
:1054F00000F0D1FD17A901A800F00BFE00240FE079
:1055000017A9095D081100F084FE05F8140017A919
:10551000085D00F07EFE012101EB44016854641C2B
:10552000102CEDDB00BF97E72DE9F043BDB0064638
:10553000884615461F46DDF810910EB105B117B922
:105540003DB0BDE8F083B9F1400F00DDF8E7402140
:1055500016A802F01CFC402106A802F018FC4A46DE
:10556000394616A802F0FAFB4A46394606A802F068
:10557000F5FB00240CE016A8005D80F0360016A9AB
:10558000085506A8005D80F05C0006A90855641C5B
:10559000402CF0DB26A800F056FE26A800F06DFE99
:1055A000402216A926A802F00CFB4246314626A846
:1055B00002F007FB01A926A802F041FB26A800F093
:1055C00042FE26A800F059FE402206A926A802F0B5
:1055D000F8FA142201A926A802F0F3FA01A926A8D4
:1055E00002F02DFB00240FE001A9095D081100F075
:1055F00010FE05F8140001A9085D00F00AFE012163
:1056000001EB44016854641C142CEDDB00BF97E7E8
:105610002DE9F84305460F460026B04674E0FF2208
:105620000421684602F0ACFB002409E03A48006817
:10563000005DA95D884201D18DF80040601CC4B2B4
:10564000402CF3DB00240AE033480068015D701C45
:10565000285C814201D18DF80140601CC4B2402C0D
:10566000F2DB00240AE02C480068015DB01C285CD5
:10567000814201D18DF80240601CC4B2402CF2DBA3
:1056800000240AE024480068015DF01C285C814287
:1056900001D18DF80340601CC4B2402CF2DB9DF8B0
:1056A0000000FC2101EA80009DF80110C1F3011106
:1056B0000843414608F101087854B01C285C3D2895
:1056C00000D124E09DF80100F02101EA00109DF8CE
:1056D0000210C1F383010843414608F101087854E0
:1056E000F01C285C3D2800D111E09DF80200F0215B
:1056F00001EA80109DF8031001F03F010843414684
:1057000008F101087854361DA85D002887D100BF34
:105710004046BDE8F88300009800002010B502461E
:1057200002E0002302F8013B0B00A1F10101F8D1D6
:1057300010BD10B504465821204602F028FB10BDCC
:1057400010B5044604B910BD58212046FFF7E6FF06
:1057500000BFF8E770B504460D465822294620469A
:1057600002F0FCFA70BD002101604160FE498160D9
:10577000FE4AC260CA430261FC4AD243426170479A
:10578000F0B590B005460C462678677846EA0726BD
:10579000A77846EA0746E77846EA0766009626793C
:1057A000677946EA0726A77946EA0746E77946EA8F
:1057B00007660196267A677A46EA0726A77A46EAB6
:1057C0000746E77A46EA07660296267B677B46EA43
:1057D0000726A77B46EA0746E77B46EA0766039665
:1057E000267C677C46EA0726A77C46EA0746E77CD4
:1057F00046EA07660496267D677D46EA0726A77D6A
:1058000046EA0746E77D46EA07660596267E677EF6
:1058100046EA0726A77E46EA0746E77E46EA076687
:105820000696267F677F46EA0726A77F46EA074651
:10583000E77F46EA0766079694F8206094F821709F
:1058400046EA072694F8227046EA074694F8237041
:1058500046EA0766089694F8246094F8257046EAAC
:10586000072694F8267046EA074694F8277046EA19
:105870000766099694F8286094F8297046EA072686
:1058800094F82A7046EA074694F82B7046EA0766B1
:105890000A9694F82C6094F82D7046EA072694F83E
:1058A0002E7046EA074694F82F7046EA07660B9674
:1058B00094F8306094F8317046EA072694F8327014
:1058C00046EA074694F8337046EA07660C9694F861
:1058D000346094F8357046EA072694F8367046EA44
:1058E000074694F8377046EA07660D9694F83860D4
:1058F00094F8397046EA072694F83A7046EA074663
:1059000094F83B7046EA07660E9694F83C6094F86B
:105910003D7046EA072694F83E7046EA074694F83A
:105920003F7046EA07660F96A868E9682A696B69BE
:1059300082EA03060E405E40009F3E448C4F3E4488
:105940003044C60146EA5066701881EA02060640F5
:105950005640019F3E44874F3E4433441E0346EA6F
:105960001356331880EA01061E404E40029F3E4403
:10597000814F3E443244560446EAD236F21883EA56
:10598000000616404640039F3E447C4F3E4431444F
:105990008E0546EA9126B11882EA03060E405E4063
:1059A000049F3E44764F3E443044C60146EA50666A
:1059B000701881EA020606405640059F3E44714F2A
:1059C0003E4433441E0346EA1356331880EA010668
:1059D0001E404E40069F3E446B4F3E4432445604A8
:1059E00046EAD236F21883EA000616404640079F80
:1059F0003E44664F3E4431448E0546EA9126B11836
:105A000082EA03060E405E40089F3E44604F3E44DB
:105A10003044C60146EA5066701881EA0206064024
:105A20005640099F3E445B4F3E4433441E0346EAC2
:105A30001356331880EA01061E404E400A9F3E442A
:105A4000A6F524464F3E3244560446EAD236F218B2
:105A500083EA0006164046400B9F3E444E4F3E44AC
:105A600031448E0546EA9126B11882EA03060E40BB
:105A70005E400C9F3E44494F3E443044C60146EAD6
:105A80005066701881EA0206064056400D9F3E445B
:105A9000434F3E4433441E0346EA1356331880EA0C
:105AA00001061E404E400E9F3E443E4F3E4432444F
:105AB000560446EAD236F21883EA000616404640FB
:105AC0000F9F3E44384F3E4431448E0546EA9126AE
:105AD000B11881EA02061E405640019F3E44334FF2
