:020000040800F2
:1000000088050020AD03000801040008030400086F
:10001000070400080B0400080F040008000000009B
:1000200000000000000000000000000013040008B1
:100030001504000800000000170400081904000857
:10004000C7030008C7030008C7030008C703000868
:10005000C7030008C7030008C7030008C703000858
:10006000C7030008C7030008C7030008C703000848
:10007000C7030008C7030008C7030008C703000838
:10008000C7030008C7030008C7030008C703000828
:10009000C7030008C7030008C7030008C703000818
:1000A000C7030008C7030008C7030008C703000808
:1000B000C7030008C7030008C7030008C7030008F8
:1000C000C7030008C7030008C7030008C7030008E8
:1000D000C7030008C7030008C7030008C7030008D8
:1000E000C7030008C7030008C7030008C7030008C8
:1000F000C7030008C7030008C7030008C7030008B8
:10010000C7030008C7030008C7030008C7030008A7
:10011000C7030008C7030008C7030008C703000897
:10012000C7030008C7030008C7030008C703000887
:10013000C7030008C7030008C7030008C703000877
:10014000C7030008C7030008C7030008C703000867
:10015000C7030008C7030008C703000821040008FC
:10016000C7030008C7030008C7030008C703000847
:10017000C7030008C7030008C7030008C703000837
:10018000C7030008C7030008DFF80CD001F03CFDEE
:1001900000480047D1030008880500200CB5002066
:1001A000019000907648006840F4803074490860FF
:1001B00000BF7348006800F4003000900198401CB4
:1001C0000190009818B90198B0F5A06FF1D16C4872
:1001D000006800F4003010B10120009001E0002020
:1001E00000900098012846D165484030006840F0F2
:1001F00080506349403108606248006840F48040A4
:10020000604908605E48083000685D490831086050
:100210000846006840F4004008600846006840F462
:10022000A05008605848091F0860081F006840F087
:100230008070091F086000BF5148006800F000701E
:100240000028F9D040F20560504908604C48083059
:10025000006820F003004A49083108600846006839
:1002600040F00200086000BF45480830006800F018
:100270000C000828F8D10CBD10B54548006840F4C2
:100280007000434908603E48006840F001003C4966
:10029000086000203A4908310860394800683D4943
:1002A0000840374908603C48091D0860081F00687D
:1002B00020F48020091F0860002031490C310860BB
:1002C000FFF76CFF4FF0006031498039086010BDC6
:1002D00070B500200022022300240221284D083599
:1002E0002D6805F00C0020B1042806D0082834D170
:1002F00007E02A4D2A4E356033E02A4D284E3560FE
:100300002FE01F4D2D1D2D68C5F380541C4D2D1D54
:100310002D6805F03F0154B1224DB5FBF1F5184EA3
:10032000361D3668C6F3881605FB06F209E01B4D3C
:10033000B5FBF1F5124E361D3668C6F3881605FB7F
:1003400006F20F4D2D1D2D68C5F301456D1C6B0088
:10035000B2FBF3F5124E356003E0104D104E3560E0
:1003600000BF00BF064D08352D68C5F303150E4EBE
:10037000705D0B4D2D68C540094E356070BD0000A5
:10038000003802400070004019544007003C024011
:1003900088ED00E0FFFFF6FE103000240024F4009A
:1003A0000000002040787D010400002006488047BE
:1003B00006480047FEE7FEE7FEE7FEE7FEE7FEE74A
:1003C000FEE7FEE7FEE7FEE7790200088901000884
:1003D00000F0D8FF00F0E2FE4FF4E13000F052FFF1
:1003E00003A001F033FC01E001F020F8FCE700007D
:1003F00055534152543320746573740D0A00000044
:10040000704700BFFEE700BFFEE700BFFEE700BF8A
:10041000FEE770477047704710B500F0F6FF10BD5B
:1004200010B540F22551214800F071FE00283AD065
:1004300040F225511D4800F0A1FE1C4800F0A5FD2A
:100440001B4909681A4A526888541948406840B9DB
:10045000174800680078552803D0002014494860E8
:1004600010BD13484068012808D111480068407841
:10047000532803D000200E494860F1E70C4840683B
:10048000401C0B494860084640680B280BD10846C1
:1004900014220168074801F0B1F8012006490870EC
:1004A00000200349486000BFDAE700000014014063
:1004B0006801002074010020280000203249014317
:1004C000324A1160704770B5002100230F22C478B2
:1004D0001CB32E4C246804F4E064C4F5E064C4F357
:1004E0000721C1F10404E3B20A4144789C40E1B21F
:1004F0008478144021430C07210E254C0578615562
:10050000047804F01F050124AC4005786D11AD009E
:1005100005F1E025C5F8004109E0047804F01F0565
:100520000124AC401B4D0678761145F8264070BD7D
:10053000194A0A400243154B1B1F1A60704739B114
:10054000124A121D12680243104B1B1D1A6006E06E
:100550000E4A121D126882430C4B1B1D1A60704715
:10056000042808D14FF0E021096941F004014FF05F
:10057000E022116107E04FF0E021096921F0040158
:100580004FF0E022116170470000FA050CED00E029
:1005900000E400E080E100E080FFFF1F10B50446AA
:1005A0008C48844208D10121084600F000FB00215C
:1005B000012000F0FCFA5EE08748844208D1012166
:1005C000022000F0F4FA0021022000F0F0FA52E0DC
:1005D0008248844208D10121042000F0E8FA002179
:1005E000042000F0E4FA46E07D48844208D101216D
:1005F000082000F0DCFA0021082000F0D8FA3AE0E8
:100600007848844208D10121102000F0D0FA00215E
:10061000102000F0CCFA2EE07348844208D101216A
:10062000202000F0C4FA0021202000F0C0FA22E0CF
:100630006E48844208D10121402000F0B8FA002120
:10064000402000F0B4FA16E06948844208D1012144
:10065000802000F0ACFA0021802000F0A8FA0AE027
:100660006448844207D10121801500F0A0FA0021DE
:10067000A01500F09CFA10BDF0B50A460021002339
:10068000002400BF3DE0012505FA01F3156805EAE5
:1006900003049C4234D105684F000326BE40B54395
:1006A000056015794E00B54006683543056015793B
:1006B000012D02D01579022D16D185684F00032631
:1006C000BE40B543856055794E00B54086683543D8
:1006D0008560456801268E40B5434560456896793A
:1006E0008E40B6B235434560C5684F000326BE4014
:1006F000B543C560D5794E00B540C6683543C56081
:10070000491C1029BFD3F0BD4FF6FF7101600021D5
:10071000017141718171C171704708B54FF4803228
:100720000092009A0A430092009AC261C161009A45
:10073000C261C2690092C269009208BD02460020EF
:1007400013690B400BB1012000E000207047014607
:10075000086980B270470246002053690B400BB114
:10076000012000E0002070470146486980B27047D0
:1007700001837047418370470AB1018300E04183E0
:1007800070474161704742694A4042617047F0B525
:10079000002300244D07ED0E02FA05F3CE1000F100
:1007A000200555F826504E07F70E0F26BE40B543DC
:1007B000CF1000F1200646F82750CE1000F120059A
:1007C00055F8265045EA0304CE1000F1200545F8FF
:1007D0002640F0BD00000240000402400008024034
:1007E000000C0240001002400014024000180240B9
:1007F000001C024000200240FA48006840F001005E
:10080000F84908600020F74908310860F548006899
:10081000F5490840F3490860F448091D0860081FBD
:10082000006820F48020091F08600020ED490C3189
:10083000086070470021EB4A921C11701146087045
:10084000704710B501460022002300204A11012AFA
:1008500002D1E44C236808E0022A03D1E14C703451
:10086000236802E0DF4C7434236801F01F02012486
:1008700094401C400CB1012000E0002010BD38B5B0
:10088000002000900024002500BF3120FFF7D9FF91
:1008900005460098401C00900098B0F5A06F01D06C
:1008A000002DF2D03120FFF7CCFF08B1012400E089
:1008B0000024204638BD01460020CA4A106820F0B6
:1008C000F80040EAC10010607047C94908607047ED
:1008D0000021C44A703211701170012802D004281E
:1008E0000AD104E00121BF4A7032117005E00521F0
:1008F000BC4A7032117000E000BF00BF7047BD49B4
:100900000860704770B5049C41EA82150126C6EB69
:10091000530645EA0645054345EA0465B14E361DD2
:10092000356070BDB24908667047820142EA0172C3
:10093000AC4B84331A607047AD4988667047AC4948
:10094000C864704702460020A64B0833186820F0A0
:10095000EC6042EA01031843A24B08331860704769
:10096000024600209F4B0833186820F0784042EA86
:10097000010318439B4B0833186070470146002061
:10098000984A0832106820F003000843106070474E
:1009900094480830006800F00C00704701460020C1
:1009A000904A0832106820F0F00008431060704749
:1009B000014600208B4A0832106820F4E0500843BA
:1009C0001060704701460020864A0832106820F403
:1009D000604040EAC10010607047F0B5002100227D
:1009E00000240225002602237E4F08373F6807F0C7
:1009F0000C0121B1042905D0082937D105E07E4F2B
:100A0000076036E07D4F076033E0764F3F1D3F685B
:100A1000C7F38056734F3F1D3F6807F03F036EB129
:100A2000764FB7FBF3F7DFF8BCC10CF1040CDCF830
:100A300000C0CCF3881C07FB0CF40CE06E4FB7FB36
:100A4000F3F7DFF8A0C10CF1040CDCF800C0CCF324
:100A5000881C07FB0CF4634F3F1D3F68C7F3014739
:100A60007F1C7D00B4FBF5F7076002E0624F076072
:100A700000BF00BF5B4F08373F6807F0F00109096E
:100A80005F4F7A5C0768D7404760564F08373F682A
:100A900007F4E051890A5A4F7A5C4768D74087606B
:100AA000504F08373F6807F46041490B544F7A5C58
:100AB0004768D740C760F0BD002100F44072B2F52E
:100AC000407F0AD1474A0832116821F4F8114D4A93
:100AD00002401143434A08321160424A70321268A0
:100AE000C0F30B031A433F4B70331A607047414900
:100AF0004439086070473F494039086070474249AF
:100B00000860704739B1374A303212680243354BBA
:100B100030331A6006E0334A303212688243314B78
:100B200030331A60704739B12E4A343212680243AA
:100B30002C4B34331A6006E02A4A3432126882435E
:100B4000284B34331A60704739B1264A383212685C
:100B50000243244B38331A6006E0224A38321268C6
:100B60008243204B38331A60704739B11D4A4032F6
:100B7000126802431B4B40331A6006E0194A4032A8
:100B800012688243174B40331A60704739B1154AD7
:100B9000443212680243134B44331A6006E0114A90
:100BA0004432126882430F4B44331A60704739B1A4
:100BB0000C4A1032126802430A4B10331A6006E0E6
:100BC000084A103212688243064B10331A6070478D
:100BD000E1B1044A143212680243024B14331A6022
:100BE00019E0000000380240FFFFF6FE103000243C
:100BF00000004742800E47420024F40040787D0107
:100C000014000020FFFCFF0F5C0147425B4A1268A2
:100C100082435A4B1A60704739B1584A121D126804
:100C20000243564B1B1D1A6006E0544A121D1268FF
:100C30008243524B1B1D1A60704739B14F4A0C3228
:100C4000126802434D4B0C331A6006E04B4A0C32DB
:100C500012688243494B0C331A60704739B1474AD6
:100C6000103212680243454B10331A6006E0434AC3
:100C7000103212688243414B10331A60704739B109
:100C80003E4A3C32126802433C4B3C331A6006E059
:100C90003A4A3C3212688243384B3C331A60704700
:100CA00039B1364A403212680243344B40331A603D
:100CB00006E0324A403212688243304B40331A60B9
:100CC000704739B12D4A4432126802432B4B4433EA
:100CD0001A6006E0294A443212688243274B4433A3
:100CE0001A60704739B1254A4C3212680243234BCF
:100CF0004C331A6006E0214A4C32126882431F4B83
:100D00004C331A60704739B11C4A503212680243A2
:100D10001A4B50331A6006E0184A50321268824368
:100D2000164B50331A60704739B1144AD21F1278EB
:100D30000243124BDB1F1A7006E0104AD21F1278D2
:100D400082430E4BDB1F1A7070470C4860300068FE
:100D500040F080700949603108607047014600200A
:100D6000064A083A12680A400AB1012000E0002051
:100D700070470249891F087070470000143802400C
:100D800010B50446F748844208D101211020FFF72E
:100D900065FF00211020FFF761FF3EE0F24884422A
:100DA00009D101214804FFF748FF00214FF400302A
:100DB000FFF743FF31E0ED48844209D10121880467
:100DC000FFF73BFF00214FF48020FFF736FF24E0C0
:100DD000E748844209D10121C804FFF72EFF002112
:100DE0004FF40020FFF729FF17E0E248844209D1C1
:100DF00001210805FFF721FF00214FF48010FFF7C4
:100E00001CFF0AE0DC48844207D101212020FFF7C3
:100E100025FF00212020FFF721FF10BD2DE9FF470E
:100E200005460E460024A14600BFA046B08900B189
:100E300000BF2C8A24F44054F08804432C82AC89EF
:100E400041F20C608443B0883189084371890843BA
:100E50000443AC81AC8A24F44074B0890443AC826E
:100E60006846FFF7BAFDBF48854202D0C2488542B6
:100E700002D1DDF80C9001E0DDF80890A88900F4BB
:100E8000004040B109EBC90000EB0910316849008E
:100E9000B0FBF1F707E009EBC90000EB091031687E
:100EA0008900B0FBF1F76420B7FBF0F004012009E2
:100EB000642101FB1078A88900F4004040B1322081
:100EC00000EBC800B0FBF1F000F00700044308E0BD
:100ED000322000EB08106421B0FBF1F000F00F00AD
:100EE00004432C81BDE8FF874FF4165101600021B7
:100EF0008180C18001810C21418100218181704765
:100F000010B502460020108A20F470600B884C88CF
:100F100023438C882343CC8823431843108210BD7D
:100F20000021018041808180C180704721B1828988
:100F300042F40052828104E082894DF6FF731A4028
:100F400082817047028B02F47F420283028B0A4344
:100F50000283704721B1828942F40042828103E01A
:100F60008289C2F30E028281704721B1828A42F4E3
:100F70000062828204E0828A4FF2FF731A4082820A
:100F80007047C1F308028280704701468888C0F329
:100F900008007047028A4FF6F0731A400282028AF4
:100FA0000A430282704721B1828942F002028281A3
:100FB00004E082894FF6FD731A408281704782896E
:100FC0004FF2FF731A40828182890A4382817047FF
:100FD000028A4FF6DF731A400282028A0A430282B3
:100FE000704721B1028A42F48042028204E0028A00
:100FF0004BF6FF731A4002827047818941F001016C
:101000008181704721B1828A42F00802828204E025
:10101000828A4FF6F7731A4082827047028BD2B2EF
:101020000283028B42EA01220283704721B1828A45
:1010300042F02002828204E0828A4FF6DF731A4077
:101040008282704721B1828A42F01002828204E0DB
:10105000828A4FF6EF731A4082827047828A4FF677
:10106000FB731A408282828A0A438282704721B1CE
:10107000828A42F00202828204E0828A4FF6FD7385
:101080001A40828270471AB1838A0B43838202E03E
:10109000838A8B4383827047F0B503460024002681
:1010A0000025002040F66A17B94200D100BF18465B
:1010B000C1F3421401F01F06012707FA06F5012CBF
:1010C00001D10C3004E0022C01D1103000E01430CA
:1010D0001AB107682F43076002E00768AF43076053
:1010E000F0BD02460020B1F5007F00D100BF13889B
:1010F0000B400BB1012000E00020704701F40072AA
:10110000B2F5007F00D100BFCA430280704770B5BE
:101110000246002400230025002040F66A16B14252
:1011200000D100BFC1F3421501F01F03012606FAEA
:1011300003F3012D02D19689334006E0022D02D13E
:10114000168A334001E0968A33400C12012606FAD3
:1011500004F41688344013B10CB1012000E00020E3
:1011600070BD0000001001400044004000480040F5
:10117000004C0040005000400014014010B5002217
:10118000002340F66A14A14200D100BF0A120124D4
:101190009440A3B2DC43048010BD000000B587B0CA
:1011A00001210420FFF7AEFC01218804FFF7DDFCDC
:1011B00002208DF8180000208DF81A0001208DF80B
:1011C0001B0000208DF819004FF40060059005A960
:1011D0006748FFF751FA4FF48060059005A964480D
:1011E000FFF74AFA07220A216148FFF7D0FA0722DF
:1011F0000B215F48FFF7CBFA4FF4E130019000205C
:10120000ADF80800ADF80A00ADF80C00ADF810001C
:101210000C20ADF80E0001A95648FFF7FFFD012193
:101220005448FFF783FE012240F225515148FFF751
:1012300033FF07B000BD70B504460D464D48008829
:10124000E1B24C48FFF79DFE00BF40214948FFF73F
:1012500048FF0028F9D0204670BD70B504460D4601
:101260000BE014F8011B4348FFF78BFE00BF402141
:101270004048FFF736FF0028F9D0281EA5F10105E8
:10128000EFD170BD10B588B0044600203A494872CD
:10129000486008723948086001210420FFF732FCD9
:1012A00001212020FFF772FC02208DF81C00002095
:1012B0008DF81E0001208DF81F0000208DF81D0004
:1012C000C020069006A92A48FFF7D6F90822062171
:1012D0002748FFF75CFA082207212548FFF757FA4D
:1012E00002940020ADF80C00ADF80E00ADF810002F
:1012F000ADF814000C20ADF8120002A92048FFF749
:101300008DFD01211E48FFF711FE012240F22551FB
:101310001B48FFF7C1FE4FF4A060FFF7CFF847204E
:101320008DF8040000208DF805008DF806000120DE
:101330008DF8070001A8FFF7C6F801211048FFF754
:10134000F5FD08B010BD70B504460D460BE014F86D
:10135000011B0B48FFF715FE00BF40210848FFF7AF
:10136000C0FE0028F9D0281EA5F10105EFD170BDFF
:1013700000080240004800406801002030000020C2
:101380000014014030B5254800684FF47A72B0FB74
:10139000F2F1481EB0F1807F01D301201BE0481E0E
:1013A0004FF0E022506150170F22002807DA130790
:1013B0001D0E1B4B00F00F04241F1D5503E01307E7
:1013C0001C0E184B1C5400BF00204FF0E02290610F
:1013D00007201061002008B100BFFEE730BD1249B0
:1013E000086000BF104909680029FBD1704700213F
:1013F00006E0082100BF0A1EA1F1010399B2FAD14B
:10140000021EA0F10100F4D170470748006820B126
:1014100005480068401E044908607047000000202D
:1014200018ED00E000E400E02400002010B52DEDF0
:10143000068B88B05948007801287DD10020574993
:10144000087057498978564AD27841EA022108B291
:1014500000F06EFA41EC1A0B9FED520B53EC102B7F
:1014600000F0F7F941EC190B9FED500B53EC102BEA
:1014700000F07DF941EC180B00F07EFA0590484928
:101480000979474A527941EA022108B200F050FA3C
:1014900041EC1A0B9FED430B53EC102B00F0D9F9E4
:1014A00041EC190B9FED410B53EC102B00F05FF951
:1014B00041EC180B00F060FA069039498979384AF6
:1014C000D27941EA022108B200F032FA41EC1A0B5B
:1014D0009FED340B53EC102B00F0BBF941EC190BD2
:1014E0009FED320B53EC102B00F041F941EC180B3F
:1014F00000F042FA07902A49097A294A527A41EAC9
:10150000022108B200F014FA41EC1A0B9FED290BEE
:1015100053EC102B00F09DF941EC190B9FED270BBC
:1015200053EC102B00F07CF841EC180B00F024FA7F
:1015300004469DED070A00E02BE010EE101A084665
:1015400000F007FA41EC190B9DED060A10EE101A97
:10155000084600F0FEF941EC1A0B9DED050A10EE6D
:10156000101A084600F0F5F941EC180B8DED029BBE
:101570008DED00AB53EC182B12A000F067FB20465A
:1015800000F0E7F941EC180B53EC182B18A000F011
:101590005DFB08B0BDEC068B10BD000028000020EC
:1015A00074010020000000000000E0400000000086
:1015B0000080664000000000004075400000000010
:1015C0000020424058D6E1BDC7B6C83A252E326643
:1015D0002C2059D6E1BDC7B6C83A252E32662C203C
:1015E0005AD6E1BDC7B6C83A252E32660D0A0000AC
:1015F000CEC2B6C83A252E32660D0A0040EA010373
:101600009B0703D009E008C9121F08C0042AFAD2B8
:1016100003E011F8013B00F8013B521EF9D270477C
:101620002DE9FE4F804681EA0300C00F0C46009072
:1016300021F0004123F00045B8EB0200A94105D29A
:101640004046214690461C460B46024623F0004089
:10165000104347D0270DC7F30A00C3F30A51029085
:10166000401A019040286BDAC3F3130040F4801B4A
:101670000098924620B10023D2EB030A63EB0B0BD8
:1016800001985946C0F14002504600F0D8F906468C
:101690000D4650465946019A00F0E0F910EB08005B
:1016A0006141002487EA115284EAE7731A4340D06B
:1016B000009A62B3019A012A4FEA075215DC001B17
:1016C00061EB02014FF0004202EA0752CDE900420D
:1016D000001C41F5801132462B4600F017FA03B08A
:1016E000BDE8F08F40462146F9E7001B61EB02019F
:1016F000001C41F5801300185B412018A2F500176B
:1017000047EB030140EAD570B6196D4111E06D0851
:101710004FEA360645EAC0754FEA0752001B61EBF7
:101720000201001C41F5801149084FEA3000001900
:10173000514132462B4603B0BDE8F04F00F0D7B917
:101740000098012240000023D0EB020263EBE0731B
:10175000009821464FEAE074B8EB000061EB040109
:10176000E9E783F000435BE781F0004158E72DE9AA
:10177000FE4F81EA030404F0004421F0004100948C
:101780004FF0000B23F0004350EA01045ED052EA10
:1017900003045BD0C3F30A54C1F30A552C44A4F2EA
:1017A000F3340194A0FB0254C1F3130141F48011FE
:1017B000C3F3130343F4801301FB024400FB034E05
:1017C000840A970A44EA815447EA8357A4FB0768CE
:1017D00002958D0A05FB07854FEA932C04FB0C54F8
:1017E0002705029D4FEA065847EA1637B5EB08056C
:1017F0006EEB070C870E920E47EA811742EA8312BE
:10180000A7FB0201B6EB0B0164EB00042B0D43EACE
:101810000C335E1844EB1C50DA465146E7FB0201DC
:10182000C5F313044FEA0B3343EA14534FEA04326F
:10183000019C43EA0603A4F10C040294009CCDE948
:1018400000B400F063F903B0BDE8F08F002001465A
:10185000F9E72DE9F04D81EA030404F0004B21F093
:10186000004514464FF0000A23F0004150EA0502FB
:1018700020D054EA01021DD0C5F30A570246C5F331
:101880001303C1F31300C1F30A5640F4801543F467
:101890008013A7EB0608101BD64608F2FD3873EB41
:1018A000050002D308F1010801E092185B41B8F18C
:1018B000000F03DA00200146BDE8F08D00204FF450
:1018C0008011064684460EE0171B73EB050705D30F
:1018D000121B63EB050306434CEA010C49084FEA6F
:1018E000300092185B4150EA0107EDD152EA030043
:1018F00012D082EA040083EA0501084305D0101BD8
:10190000AB4106D20122002306E000224FF0004343
:1019100002E06FF0010253101AEB06004CEB085185
:1019200010EB0A0041EB0B01BDE8F04D00F0DFB811
:101930000EB5C10F80EAE0700844CA07002140F2EA
:1019400033438DE80E000A460B4600F0DFF803B083
:1019500000BD00F0004230F000400AD0C10D01F59A
:101960006071C0F3160042EA0151C20840071143FA
:10197000704700200146704701F0004330B421F069
:10198000004150EA010206D00A0DA2F56072C1F3CF
:101990001301002A02DC30BC00207047440F44EAE7
:1019A000C104C100E01830BC00EBC25000F068B8C0
:1019B00030B50B46014600202022012409E021FA1F
:1019C00002F59D4205D303FA02F5491B04FA02F51C
:1019D0002844151EA2F10102F1DC30BD2DE9F05FB3
:1019E0000546002092469B4688460646814640248E
:1019F0001BE0284641464746224600F017F9534669
:101A00005A46C01A914110D311461846224600F09A
:101A100016F82D1A67EB01084F46224601200021D7
:101A200000F00DF817EB00094E41201EA4F101044F
:101A3000DFDC484631462A464346BDE8F09F202A6F
:101A400004DB203A00FA02F1002070479140C2F115
:101A5000200320FA03F3194390407047202A06DB45
:101A6000CB17203A41FA02F043EAE07306E041FA6C
:101A700002F3D040C2F1200291400843194670475A
:101A80000029A8BF7047401C490008BF20F0010092
:101A9000704710B4B0FA80FC00FA0CF050EA010470
:101AA00004BF10BC704749B1CCF1200421FA04F402
:101AB00011FA0CF118BF012121430843A3EB0C01DB
:101AC000CB1D4FEA00614FEA102042BF002010BC3E
:101AD000704700EBC35010440029A4BF10BC7047EE
:101AE000401C490008BF20F0010010BC704710B531
:101AF000141E73F1000408DA401C41F10001921831
:101B00005B411A4301D120F0010010BD2DE9F04DD9
:101B100092469B4611B1B1FA81F202E0B0FA80F22E
:101B200020329046FFF78BFF04460F4640EA0A003A
:101B300041EA0B0153465A46084313D0114653EA73
:101B4000010019D0C8F14002504600F06FF8054678
:101B50000E46504659464246FFF771FF084305D0EE
:101B6000012004E020463946BDE8F08D0020054301
:101B700046EAE0762C4337430A986305E40AA0EB73
:101B800008000022FD0A44EA47540A3002D500202A
:101B90000146E9E7010510196941DDE90845001929
:101BA0006941BDE8F04DA2E7C1F30A52C1F3130148
:101BB00040F2FF3341F480119A4202DA00200146DC
:101BC000704740F233439A42A2F2334202DC52425F
:101BD00000F02CB8FFF733BF30B5041E71F10004DC
:101BE00004DB4FF00044404264EB0101141E73F12A
:101BF000000405DB1C464FF00043524263EB040334
:101C0000994208BF904230BD064C074D06E0E0689F
:101C100040F0010394E8070098471034AC42F6D333
:101C2000FEF7B6FA2025000840250008202A04DB2C
:101C3000203A21FA02F00021704721FA02F3D04045
:101C4000C2F1200291400843194670470FB4054B7A
:101C500010B503A9044A029800F0CAF810BC5DF858
:101C600014FB0000371200082C00002002E008C816
:101C7000121F08C1002AFAD170477047002001E006
:101C800001C1121F002AFBD1704700002DE9FF5F40
:101C9000DDE90220010DDDF838B0024318D044F62A
:101CA0001050A1F2FF3141430D140F98012820D0AC
:101CB000A5EB0B00401C5FEA000A4FF00004474E02
:101CC000DFF81C91A046504616D5CAF1000728E05F
:101CD0000F98012443A2012808D0002100980F9BEF
:101CE000C0E90021C0E90243BDE8FF9F6FEA0B0194
:101CF000F4E7CBF10000DEE7074612E0F80707D073
:101D00002246334640464946FFF731FD8046894624
:101D10002246334610461946FFF729FD04460E4673
:101D20007F10002FEAD1DDE90201BAF1000F42462F
:101D30004B4602DAFFF71BFD01E0FFF78AFD044680
:101D40000E460022284BFFF747FF03D84FF0FF3025
:101D5000014607E00022254B20463146FFF760FC94
:101D6000FFF722FF102409E0002C0ADB0A220023DF
:101D7000FFF734FE019B30321A55641E50EA01020F
:101D8000F2D1641C019AC4F1110314440F9A012A80
:101D900003D0012208430DD10AE0084304D00020FB
:101DA0004FF0110B0F9080E7A3EB0B056D1E0DE0BC
:101DB0005B4504DD4FF0000205F1010504E003DAA4
:101DC0004FF00002A5F10105002AECD000980F9910
:101DD000C0E90231C0E9004586E700000000244068
:101DE0000000F03F300000000000F0430000E03F42
:101DF0002DE9FF4F95B09B468946064600250FE228
:101E0000252877D100242746F84A0121059400E0CF
:101E1000044316F8013F203B01FA03F01042F7D1CA
:101E200030782A2811D06FF02F033078A0F13002DB
:101E3000092A16D8059A44F0020402EB820203EB49
:101E400042021044761C0590EFE759F8042B0592E6
:101E5000002A03DA504244F40054059044F002048E
:101E6000761C30782E2816D116F8010F44F00404A1
:101E70002A280DD06FF02F023078A0F13003092B03
:101E800009D807EB870302EB4303C718761CF3E777
:101E900059F8047B761C30786C280FD006DC4C286F
:101EA00017D068280DD06A2814D104E0742810D007
:101EB0007A280FD10DE044F400140AE044F48014B1
:101EC00001E044F440147278824202D104F5801497
:101ED000761C761C307866280BD013DC582877D017
:101EE00009DC002875D04528F6D04628F4D04728CC
:101EF0001AD19DE118E0632835D0642879D065288F
:101F000012D195E1702873D008DC6728F1D06928D8
:101F10006FD06E280DD06F2806D1B5E073282CD075
:101F2000752875D0782874D05A46179990476D1C3B
:101F300075E1C4F30250022809D003280DD0D9F866
:101F4000001004280DD00D6009F1040967E1D9F8EB
:101F50000010EA17C1E90052F6E7D9F800100D8029
:101F6000F2E70D70F0E719F8041B8DF8001000205F
:101F70008DF80100EA46012003E059F804AB4FF068
:101F8000FF3061074FF0000102D40DE008F10101BC
:101F90008846B9420FDA8045F8DB1AF808100029A4
:101FA000F4D108E008F1010188468142FADB1AF811
:101FB00008100029F6D105985B46A0EB08072146DA
:101FC0003846179A00F094FA284400EB080507E019
:101FD0004DE029E10DE01AF8010B5A461799904798
:101FE000B8F10108F7D25B4621463846179A13E14B
:101FF00042E00A220092C4F302524FF0000A022A81
:1020000008D059F804CB032A4FEAEC710AD00DE04E
:1020100029E02AE009F1070121F00702F2E802C1F4
:10202000914609E00FFA8CFC4FEAEC71042A03D1C7
:102030004FFA8CFC4FEAEC71002907DA0A460021BE
:10204000DCF1000C61EB02012D2202E0220504D537
:102050002B228DF80420012203E0E20701D0202288
:10206000F7E7904659E00A2102E010220DE0102126
:102070004FF0000A00910BE010224FF0000A44F0EC
:1020800004040827009203E008224FF0000A00929F
:10209000C4F30252022A05D059F804CB0021032AC6
:1020A00008D009E009F1070121F00702F2E802C1B6
:1020B000914605E01FFA8CFC042A01D10CF0FF0CBC
:1020C0004FF00008220728D5702806D0009B83F027
:1020D000100353EA0A0305D00EE040228DF80420D5
:1020E000012208E05CEA010206D030228DF80420CB
:1020F0008DF8050002229046009B83F0080353EA06
:102100000A030AD15CEA010201D1620705D5302237
:102110008DF804204FF001087F1E582804D034A009
:1021200003900EA802900DE036A0F9E753466046F2
:10213000009AFFF753FC84460398825C0298401E85
:10214000029002705CEA0100F0D1029806A9081A18
:1021500000F1200A600702D524F4803400E0012752
:10216000574502DDA7EB0A0000E0002000EB0A0162
:10217000009005984144401A0590E00306D45B4660
:102180002146179A059800F0B3F90544002706E0A8
:1021900001A85A46C05D179990476D1C7F1C4745A2
:1021A000F6DBE0030CD55B462146179A059800F054
:1021B0009FF9054404E030205A46179990476D1C5A
:1021C0000099481E00900029F5DC08E00298029969
:1021D0005A460078491C0291179990476D1CBAF134
:1021E0000001AAF1010AF1DC65E100000928010003
:1021F000303132333435363738396162636465667D
:10220000000000003031323334353637383941423E
:10221000434445460000000000F058F90544761C90
:10222000307800287FF4ECAD19B02846BDE8F08F77
:10223000620700D4062709F1070222F0070CFCE828
:102240000223E14603F000485FEA080C02D00FF2D7
:10225000702C0DE05FEA045C02D50FF2682C07E0F9
:102260005FEAC47C02D00FF2602C01E0AFF2700C88
:102270004FF0FF3823F00043CDF850C065280CD054
:1022800006DC452809D046281DD047283DD13DE031
:10229000662818D067287ED138E00021112F01DB95
:1022A000112000E0781CCDE9000106A90EA8FFF777
:1022B000EDFCDDE90F010E9A03910021009207F178
:1022C000010A04914DE04FF000400097CDE9011064
:1022D00006A90EA8FFF7DAFCDDE90F0203920E9BB8
:1022E00011990022DDF80CA00093049211B9791C19
:1022F00000EB010AB7EB0A0004D4C0F1FF3007F18C
:10230000010A0490AAEB0700019044E0012F00DAD3
:1023100001270021112F01DD112000E03846CDE911
:10232000000106A90EA8FFF7B1FCDDE90F010E9A26
:102330000391002104910092BA4621070CD403991D
:10234000514500DA8A46BAF1010F05DD009AAAF17B
:102350000101515C302908D0B84202DA10F1040FB3
:1023600006DA0121CDE9011015E0AAF10101E9E742
:10237000002805DC049901440491AAEB000102E065
:10238000411C514500DD8A460499401A401C0190C9
:102390004FF000400290200704D40198504501DB23
:1023A000CDF8048000208DF84F0002980DF14F0702
:1023B000B0F1004F25D02B200E9002984FF002086C
:1023C00000280CDA404202902D200E9007E00A21EE
:1023D0000298FFF7EDFA3031029007F8011DB8F1CD
:1023E0000001A8F10108F2DC02980028EFD1791E63
:1023F0000E980870307800F0200040F0450007F893
:10240000020D12A8C01B00F107081498007800B153
:10241000012000EB0A01019801EBE07105984144AD
:10242000401A401E0590E00306D45B462146179AE9
:10243000059800F05DF805441498007818B15A46E4
:10244000179990476D1CE00324D55B462146179AE7
:10245000059800F04DF805441CE00498002807DBBF
:10246000DDE90301884203DD0098405C179901E033
:10247000179930205A469047049805F10105401CF1
:1024800004900198401E019004D12E205A461799BD
:1024900090476D1CBAF10001AAF1010ADDDC05E0EC
:1024A00017F8010B5A46179990476D1CB8F10001B7
:1024B000A8F10108F4DC5B462146179A0598ABE6C3
:1024C0002D0000002B000000200000002DE9F0414D
:1024D000044600251E461746880404D405E0394604
:1024E0002020B0476D1C641EF9D52846BDE8F08158
:1024F0002DE9F041044600251E469046C80301D54B
:10250000302700E02027880404D505E041463846FE
:10251000B0476D1C641EF9D52846BDE8F081000067
:102520004025000800000020300000006C1C00085E
:102530007025000830000020580500007C1C0008B1
:10254000007A030A000000000000000001020304FA
:102550000607080900000000010203040102030449
:10256000060708090000000000000000000000004D
:040000050800018965
:00000001FF
